:020000041004E6
:10000000F0CB0030ED010410F5010410F7010410ED
:1000100000000000000000000000000000000000E0
:1000200000000000000000000000000007020410B3
:10003000000000000000000009020410CD29041097
:100040000D0204100D0204100D0204100D02041024
:100050000D0204100D0204100D0204100D02041014
:100060000D0204100D0204100D0204100D02041004
:100070000D0204100D0204100D0204100D020410F4
:100080000D0204100D0204100D0204100D020410E4
:100090000D0204100D0204100D0204100D020410D4
:1000A0000D0204100D0204100D0204100D020410C4
:1000B0000D0204100D0204100D0204100D020410B4
:1000C0000D0204100D0204100D0204100D020410A4
:1000D0000D0204100D0204100D0204100D02041094
:1000E0000D0204100D0204100D0204100D02041084
:1000F0000D0204100D0204100D0204100D02041074
:100100000D0204100D0204100D0204100D02041063
:100110000D0204100D0204100D0204100D02041053
:100120000D0204100D0204100D0204100D02041043
:100130000D0204100D0204100D0204100D02041033
:100140000D0204100D0204100D0204100D02041023
:100150000D0204100D0204100D0204100D02041013
:100160000D0204100D0204100D0204100D02041003
:100170000D0204100D0204100D0204100D020410F3
:100180000D0204100D0204100D0204100D020410E3
:100190000D0204100D0204100D0204100D020410D3
:1001A0000D0204100D0204100D0204100D020410C3
:1001B0000D0204100D0204100D0204100D020410B3
:1001C0000D0204100D0204100D020410E1280410A9
:1001D0000D0204100D0204100348854600F026FBB2
:1001E0000048004761360410F0CB00300C488047CF
:1001F0000C480047FEE77046EFF30881EFF30982F1
:10020000094B98470047FEE7FEE7FEE7FEE70000E0
:10021000ABBE064B7446984720477046F047000037
:10022000552A0410D901041011230410E5280410E4
:10023000D2B201E00270401C491EFBD2704700227E
:10024000F6E710B513460A4604461946FFF7F0FFD5
:10025000204610BD421E5378521C002BFBD10B7858
:100260001370491C521C002BF9D17047421C0178B5
:10027000401C0029FBD1801A704703460A7802709F
:10028000401C491C002AF9D11846704710B5484354
:10029000044603F0DBFF002805D00021002C02D02B
:1002A000641E0155FAE710BDF0B5074608465840F0
:1002B00087B0C00F049048000E4659004008490816
:1002C000BC1A884105D2384631461E4617460B46B1
:1002D00002465800400810434CD0300D03904005B2
:1002E0005900400D490D0590401A0290402872DADD
:1002F00018030121000B090508430190049800929E
:10030000002805D0019952420020884100920190B6
:10031000029840210A1A0199009800F047F9054611
:100320000C466B4607CB00F062F9C0197141039A85
:100330000E0D0023D71756401A467A40164344D074
:10034000049A002A2DD0029A012A039A15DC12057C
:10035000C01A914101263605001C7141D20F059E3D
:10036000D2070093019202962A46234600F05FF9D5
:1003700007B0F0BD38463146FAE71605224A0F4667
:10038000B218C01AB74101210905001C4F410018DD
:100390007F41114618187941E20F10436D196441ED
:1003A00013E0E2076D0815436408C2071443039A7B
:1003B00001261205C01A91413605001C7141CE0775
:1003C000400830434908C01851412A46234600F0EE
:1003D00021F9CDE7FFE7049801224000C117121A66
:1003E00000238B4104983146C417381AA141EEE727
:1003F00030B40124E407634030BC55E730B4012435
:10040000E407614030BC4FE70000E0FFF0B51FB4E7
:1004100088B00B990998002448400999C00F4900F9
:1004200049080991C0070B990090490049080B91B0
:1004300009990898A64608431CD00B990A980843C6
:1004400018D0099801244000420D4800410D099838
:1004500024050003000B204309900B980003000BB8
:1004600020430B9050181C4940180022019014465C
:10047000104605E0002001460DB0F0BD032801DA6A
:10048000034600E003239C46C11A0AAE0AE05F005F
:1004900008ADED5B4F00F75B7D430027AA187C4158
:1004A000491C5B1E6145F2DD410004AB5A52210438
:1004B000120C0A43240C401C0828DFDB0198029030
:1004C0000099704601910090059B049A079906983F
:1004D00000F0ADF8D0E700000DFCFFFF0EB5C2172D
:1004E000C10F5040CA0740180021054B02930192EA
:1004F00000910A460B4600F09AF803B000BD0000D8
:100500003304000070B5CD0F4A0009030123090B25
:100510001B0519430B4BED070024520D9A4201DADB
:10052000002070BD074B34339A4203DC9A1A00F066
:100530004DF802E00449511888402C43F1D0404264
:1005400070BD0000FF030000CDFBFFFFF0B51FB43E
:100550000646002082B005464024019100901BE031
:10056000019922460F46304600F030F8049A059B68
:10057000801A994110D310461946224600F016F809
:10058000361A8F410197224601200021009F00F07A
:100590000DF838184D4100902046641E0028DFDC1D
:1005A000019B00982946324607B0F0BD10B5202ABD
:1005B00004DB0146203A9140002010BD91402023E9
:1005C0009C1A0346E3401943904010BD10B5202A01
:1005D00004DB0846203AD040002110BD0B46D34032
:1005E000D0402024A21A91400843194610BD10B5EE
:1005F000202A06DBCB170846203A1041C1170B43CF
:1006000006E00B461341D0402024A21A9140084333
:10061000194610BD10B5002B08DA0024401C6141BA
:1006200092185B411A4301D14008400010BDF0B55B
:100630001FB482B005460C0003D0084603F05AF9F7
:1006400002E003F057F92030024600902146284688
:10065000FFF7ACFF049B059A04460F46184311436D
:10066000084314D0184610431BD0009840210A1AA2
:1006700018460599FFF7AAFF05460E46009A059908
:100680000498FFF793FF084305D0012004E02046BB
:10069000394607B0F0BD0020C11705430E432C4377
:1006A000374300990E986305401A7905E40A002241
:1006B0000C43FD0A0A3002D500200146E9E7010596
:1006C000101969410C9C0D9D00196941FFF7A2FFAB
:1006D000DFE70000F0B50C465C4085B0E40FE407AE
:1006E00003944C00002664085900944649080246C9
:1006F0000296224321D062460A431ED06200570D63
:100700004A000E032303550D012402462C492405FB
:10071000781B1B0B360B4018234326436146009081
:100720001C46501AB44103D30098401C009002E0CC
:10073000921800985B41002803DA0020014605B0BA
:10074000F0BD0020012109050746864611E06446F8
:100750001D46141BB54106D36546521BB341744672
:1007600007430C43A646CD07400849082843921882
:100770005B4105460D43EAD11046184313D060464D
:10078000194650407140084306D06046101AB341E4
:1007900006D20122002306E000220123DB0702E04B
:1007A0000122D2435310009874460105381C614160
:1007B000029C039D00196941FFF72CFFBFE7000071
:1007C000FD0300004A0009030123090B1B0519431F
:1007D0000A4B10B5520D9A4202DA0020014610BDB4
:1007E000064B34339A4203DC9A1AFFF7EFFE10BD32
:1007F000034BD218FFF7DAFE10BD0000FF03000024
:10080000CDFBFFFF10B5002904DB0124E4074042C3
:100810008C412146002B04DB1C460123DB0752429E
:10082000A341994200D1904210BD0000064C012521
:10083000064E05E0E36807CC2B430C3C9847103488
:10084000B442F7D3FFF7CCFCA88B0410C88B04107C
:1008500070B50446002903D000202022012310E0B7
:10086000002801D00020C043C046C0460DE0254608
:10087000D5408D4205D30D469540641B1D469540DD
:1008800040191546521E002DF1DC214670BD70B591
:100890008C180578401C6B075B0F01D10378401C56
:1008A0002A1106D10278401C03E006780E70401C25
:1008B000491C5B1EF9D12B0705D40023521E0DD411
:1008C0000B70491CFAE70378401CCB1A921C03E01A
:1008D0001D780D70491C5B1C521EF9D5A142D8D35E
:1008E000002070BD81B000900098264909684143FE
:1008F0002548016025480021016025480521016047
:10090000FFE723480068C003002801D4FFE7F8E7A9
:100910001F480021016001B07047C04682B00190BD
:10092000012000040090FFE701980099884205D952
:10093000FFE700980199081A019004E001980090DF
:1009400000200190FFE700980E49096841430E48D6
:1009500001600E48002101600D4805210160FFE79C
:100960000B480068C003002801D4FFE7F8E70848F7
:1009700000210160FFE701980028D5D1FFE702B010
:100980007047C0460880003014E000E018E000E046
:1009900010E000E080B58EB000200D90012108220B
:1009A00008900846079111460692FFF76FFC0C90DD
:1009B000212005900799FFF769FC0C9908600C98B5
:1009C000089941601E480B901E480A900AA804909E
:1009D000FFF74CFC0C9948600C9800680499FFF7ED
:1009E0004CFC0C99079A0390104602F07FFB0C997F
:1009F00009680290084603F0FFFB0C9803F0FCFB2B
:100A0000069803F023FC0990059803F01FFC099950
:100A10000860099800682021089A425409984260A9
:100A20000999079802F0EAF90999096801900846BE
:100A300003F0E2FB099803F0DFFB0EB080BDC04677
:100A40006F2E2E0048656C6C80B582B001900198C5
:100A500040F2E83141430846FFF744FF02B080BD51
:100A600084B003900291019200200090FFE700986B
:100A70000F2819D8FFE702980099C840C00700283E
:100A80000DD0FFE7039800680099490003228A40CF
:100A90009043019A8A40104303990860FFE7FFE7FB
:100AA0000098401C0090E2E704B07047F0B593B0A6
:100AB000199C189D16460F460890079012A806909C
:100AC000089805910699088011A80599018010A839
:100AD00002700F930EA805800DA804800698028866
:100AE000E14B1B889A4207DCFFE711A80088DE492A
:100AF0004988884204DDFFE7504802F0D7FE9AE0BB
:100B000010A8007820380F99CA8842438888C10805
:100B100040074B1C002804920391029301D10398D3
:100B200002900298049948430A900F9800680A9925
:100B3000401809900CA800210180FFE70CA800884C
:100B40000F99C988884276DAFFE70BA80021018057
:100B5000FFE70BA800880F99898888425BDAFFE7D6
:100B60000EA8008800281BD1FFE7099800780BA980
:100B70000988072211408022CA4010420FD0FFE7A7
:100B800012980B99401811990C9A89180DAA12887D
:100B90000123009380B289B200F000FDFFE729E055
:100BA000099800780BA90988072211408022CA40C1
:100BB00010420FD0FFE712980B99401811990C9A28
:100BC00089180DAA12880123009380B289B200F01F
:100BD000E5FC0EE012980B99401811990C9A8918AF
:100BE0000EAA12880123009380B289B200F0D6FCCD
:100BF000FFE7FFE70BA8008807210840072804D17A
:100C0000FFE70998401C0990FFE7FFE70B98401C9D
:100C10000BA908809DE70F9880884007002804D022
:100C2000FFE70998401C0990FFE7FFE70C98401C7C
:100C30000CA9088082E713B0F0BDC046EF8604100F
:100C4000B0B58CB00B4604460BAD28800AA80180D5
:100C500009920998407808A908700998C278120288
:100C60008078101806AA108009984279120200793B
:100C7000101807AA10800878042853D1FFE70998B4
:100C8000801D099004A800210180FFE704A80088C6
:100C900007A90988884244DAFFE705A800210180F6
:100CA000FFE705A8008806A909884908884232DAC2
:100CB000FFE70B980599490040180A99049A89188A
:100CC000099A12781209012300931A4C254695437C
:100CD00089B280B22A460393029400F05FFC0B981D
:100CE000059949004018401C0A99049A8918099AE4
:100CF0001278039B0093029C944389B280B22246EF
:100D000000F04CFC0998401C0990FFE70598401C36
:100D100005A90880C5E7FFE70498401C04A90880DE
:100D2000B4E703E0024802F0C1FDFFE70CB0B0BD3C
:100D30005B870410FFFF0000F0B5FFB094B0999CF2
:100D4000989D0E460746099092A808900998079129
:100D50000899088091A80799018090928F938EA896
:100D600005808DA804808CA8002202808BA80280B8
:100D70004BA8FF2206901146059604970392FFF7B1
:100D80005EFA0BA80399FFF75AFA06980A90089999
:100D90000A88744B1B889A4207DCFFE791A80088F9
:100DA00070494988884204DDFFE7304802F07EFD43
:100DB00056E09098002810D1FFE790980A2190FB08
:100DC000F1F25143401A30308CA90A8812B20BABB1
:100DD00098548C98401C0880FFE7FFE79098002803
:100DE00015D0FFE790980A2190FBF1F20B46534390
:100DF000C01A30308CAA13881BB20BACE0548C980C
:100E0000401C1080909890FBF1F09090E6E7FFE78F
:100E10008CA8008800B2012813DBFFE78CA80188AA
:100E200009B20BAA8918491E09788BAA13881BB22C
:100E30004BACE1548B99491C11808C99491E01805F
:100E4000E6E792A8008891A909880A9A8F9B8EAC40
:100E500024888DAD2D880195009400F009F8FFE7F6
:100E60007FB014B0F0BDC046E0C30030BB860410B4
:100E7000F0B58FB0159C149D0E46074606900EA83F
:100E8000059006980491059908800DA804990180A1
:100E90000C920B930AA8058009A804800E9808AA52
:100EA00010800D9807AA1080059802882D4B1B888A
:100EB0009A4207DCFFE70DA800882A494988884242
:100EC00004DDFFE7284802F0F1FC48E0FFE70C985A
:100ED0000078002843D0FFE708A800880B9989888C
:100EE00040182049098888420ADDFFE70E9808A9C2
:100EF00008800B98C0880799081807A90880FFE7A1
:100F000007A800880B99C988401816494988884263
:100F100007DDFFE70E9808A908800D9807A908804B
:100F2000FFE708A8018807AA12880C9B1B780B9C76
:100F30000AAD2D8809AE36880196009503900846C3
:100F400011461A462346FFF7B1FD0C98401C0C9041
:100F50000B9880880899081803990880B7E70FB0A4
:100F6000F0BDC046E0C3003013860410F0B58DB06C
:100F7000129C1D460E46074604900CA80390049848
:100F80000291039908800BA9029808800A9209A986
:100F90000B8008AA14800988C91DC90805AA1180F8
:100FA00006A900220A80FFE706A8008808A9098888
:100FB00088423ADAFFE707A800210180FFE707A887
:100FC000008809A90988884229DAFFE70A9806A952
:100FD000098805AA12884A43801807A90988CA08FF
:100FE000805C072211408022CA40104211D0FFE7E6
:100FF0000C98079940180B99069A891801220092BB
:1010000080B289B20F2301921A46019B00F0C6FA02
:10101000FFE7FFE70798401C07A90880CFE7FFE735
:101020000698401C06A90880BEE70DB0F0BD000080
:10103000F0B593B0199C189D1E4617460A91099069
:10104000089012A80790099806910799088011A89E
:101050000A99018010A802800FA8038007980288CF
:10106000BE4B1B889A4207DCFFE711A80088BB49EA
:101070004988884204DBFFE7B94802F017FC6AE1BF
:101080000EA80021018010980DA90880109840003A
:101090000321081A0CA908801898012800D0B2E092
:1010A000FFE70EA8008800B20DA9098809B288429E
:1010B00000DDA7E00E980BA90880FFE70BA80088C9
:1010C00000B20DA9098809B288427ADCFFE71298BC
:1010D0000E99401811990B9A89180FAA13880124A8
:1010E000009480B289B205921A462346049400F017
:1010F00055FA12980E99401A11990B9A8918059A67
:101100001288049B009380B289B200F047FA1298CB
:101110000B99401A11990E9A8918059A1288049B06
:10112000009380B289B200F039FA12980B99401AF4
:1011300011990E9A891A059A1288049B009380B21D
:1011400089B200F02BFA12980E99401A11990B9A55
:10115000891A059A1288049B009380B289B200F024
:101160001DFA12980E99401811990B9A891A059A2E
:101170001288049B009380B289B200F00FFA129893
:101180000B99401811990E9A891A059A1288049B96
:10119000009380B289B200F001FA12980B994018BE
:1011A00011990E9A8918059A1288049B009380B2AF
:1011B00089B200F0F3F9FFE70B98401C0BA90880F7
:1011C0007CE70CA8008800B2002808D5FFE70E983D
:1011D00080000C994018801D0CA908800DE00E9825
:1011E0000D99401A80000C9940180A300CA908800B
:1011F0000D98401E0DA90880FFE70E98401C0EA90F
:1012000008804EE7A7E0FFE70EA8008800B20DA90E
:10121000098809B2884200DD9CE012980E994018B6
:1012200011990D9A89180FAA1388199C0125009508
:1012300080B289B203921A462346029500F0AEF9B5
:1012400012980E99401A11990D9A8918039A1288CA
:10125000199B029C009480B289B200F09FF9129809
:101260000D99401A11990E9A8918039A1288199BA0
:10127000029C009480B289B200F090F912980D9906
:10128000401A11990E9A891A039A1288199B029C86
:10129000009480B289B200F081F912980E99401A38
:1012A00011990D9A891A039A1288199B029C00942D
:1012B00080B289B200F072F912980E994018119913
:1012C0000D9A891A039A1288199B029C009480B285
:1012D00089B200F063F912980D99401811990E9A8D
:1012E000891A039A1288199B029C009480B289B2D1
:1012F00000F054F912980D99401811990E9A891816
:10130000039A1288199B029C009480B289B200F063
:1013100045F90CA8008800B2002808D5FFE70E9810
:1013200080000C994018801D0CA908800DE00E98D3
:101330000D99401A80000C9940180A300CA90880B9
:101340000D98401E0DA90880FFE70E98401C0EA9BD
:10135000088059E7FFE713B0F0BDC046E0C3003096
:101360004D860410F0B59DB0249C239D229E1F46FF
:101370000F920E910D900C901CA80B900D980A9155
:101380000B9908801BA80E9901801AA80F9901805B
:1013900019A8038018A806800B980388C54E3688C4
:1013A000B34215DCFFE71BA80088C2494988884280
:1013B0000EDCFFE71AA80088BE490988884207DCCE
:1013C000FFE719A80088BB494988884204DDFFE788
:1013D000714802F06BFAD6E01CA800881AA90988A7
:1013E000884207DDFFE71CA800881AA9098800F0D9
:1013F000CFFBFFE71BA8008819A90988884207DDF1
:10140000FFE71BA8008819A9098800F0C1FBFFE7C6
:101410001C9817A908801B9816A908801AA800888C
:101420001CA90988401A002807D4FFE71AA80088D9
:101430001CA90988401A099006E01CA800881AA96E
:101440000988401A0990FFE70998159019A80088A3
:101450001BA90988401A002807DCFFE719A80088A3
:101460001BA90988401A089006E01BA8008819A942
:101470000988401A0890FFE7089814901CA8008873
:101480001AA909880022D3430124884220460792E2
:1014900006930594049001DB069804900498139039
:1014A0001BA8008819A9098888420598039001DBC8
:1014B000069803900398129015981499401811906B
:1014C00010A807990170FFE71098401C10A9087038
:1014D000239801281AD1FFE710A8007840B22B49C1
:1014E00041432B4808182B4988420FD8FFE717A81B
:1014F000008816A90988249B0122009200220292EA
:1015000000F04CF810A8029901700BE017A80088B1
:1015100016A9098818AA1288249B0124009400F0B7
:101520003DF8FFE7119840001499814212DCFFE773
:1015300017A800881AA90988884201D1FFE722E08C
:10154000149811990818119013981799081817A949
:101550000880FFE7119840001599814212DBFFE7F0
:1015600016A8008819A90988884201D1FFE70AE076
:10157000159811990818119012981699081816A91B
:101580000880FFE7A0E71DB0F0BDC046ABAAAAAA3D
:10159000AAAAAA2A5455555585860410F0B589B0D3
:1015A0000E9C15460E460746029008A80190029828
:1015B00000910199088007A80099018006A802807F
:1015C000059301980288A74B1B889A4207DCFFE726
:1015D00007A80088A3494988884204DDFFE7364808
:1015E00002F064F964E00E98012834D1FFE704A802
:1015F00000210180FFE704A8008805994900491EE1
:10160000884227D2FFE703A800210180FFE703A853
:10161000008805994900491E884215D2FFE70898BD
:10162000049940180599401A079A039BD218511A39
:1016300006AA128880B289B200F07CFDFFE7039809
:10164000401C03A90880E2E7FFE70498401C04A9B6
:101650000880D0E72CE004A800210180FFE704A85F
:1016600000880599884222D2FFE703A80021018063
:10167000FFE703A800880599884212D2FFE708987F
:10168000049940180799039A891806AA128880B20B
:1016900089B200F04FFDFFE70398401C03A90880C2
:1016A000E7E7FFE70498401C04A90880D7E7FFE7B5
:1016B00009B0F0BDE0C3003024870410F0B599B044
:1016C000209C1F9D1E9E1F461292119110900F90FC
:1016D00018A80E9010980D910E99088017A81199CE
:1016E000018016A81299018015A8038014A806800D
:1016F0000E9803885B4E3688B34215DCFFE717A8C7
:1017000000885849498888420EDCFFE716A80088FF
:1017100054490988884207DCFFE715A80088514929
:101720004988884204DDFFE74F4802F0BFF896E0A1
:1017300018A8008816A90988884207DDFFE718A8BD
:10174000008816A9098800F023FAFFE717A8008887
:1017500015A90988884207DDFFE717A8008815A9A1
:10176000098800F015FAFFE71F98002823D0FFE74B
:10177000179813A90880FFE713A8008815A90988FE
:10178000884217DAFFE718A8008813A9098816AA63
:10179000128814AB1B88209C0294002401940093AF
:1017A0000C910C9BFFF7DEFDFFE71398401C13A97B
:1017B0000880E1E753E018A8018817AA138816AC3F
:1017C000258814AE37880B90209802900020019055
:1017D00000970A900846194609922A4608940796E7
:1017E000FFF7C0FD0B980188099A138815AC25886E
:1017F000079E3788209802900A9801900097084623
:1018000006911946069A2B460594FFF7ABFD0898FA
:101810000188059A1388099C2588079E3788209897
:1018200002900A9801900097084604911946049A7C
:101830002B46FFF797FD0898008805990A880B9BAF
:101840001C88079D2E88209F02970A9F019700966B
:10185000114603922246039BFFF784FDFFE719B070
:10186000F0BDC046E0C3003032870410F0B5B5B01B
:101870000020299000F042FA00F07EFBBE4801886B
:10188000491E02220292299B01930F24009489B2DF
:1018900001252890184627912946279E26923246F0
:1018A0002B4625942495FFF75DFD28980188491E55
:1018B000249A02920192259B00938AB204212998CE
:1018C0002391239BFFF74EFD28984188491F0288EA
:1018D000521E249B02930193259C009492B289B2DC
:1018E00029982291229BFFF73DFD28984188491EA7
:1018F0000288521E269B0293299C0194259D0095E7
:1019000092B289B220462191219BFFF72BFD2898A6
:101910000188491F4288D21F249B0293299C01946D
:10192000259D009589B293B2052207261046209185
:101930003146209E1F923246FFF7C0FE289801884C
:101940000A39249A02920192259B00938AB20A21B5
:10195000142308461E91FFF7B1FE249801900090D1
:101960001E2103221E981D911C92259BFFF760FBF0
:10197000249801902999009128221E9811461C9BB9
:101980001B921A46259BFFF753FB24980190009069
:1019900032211E981A911C9A259BFFF749FB289823
:1019A00001880A39249A0192009288B21D991C9AE2
:1019B000259BFFF73DFB289801880A39249A01925C
:1019C000299B009388B21B991C9A259BFFF730FB3B
:1019D000289801880A39249A0192009288B21A99AB
:1019E0001C9A259BFFF724FB34A82321018033AAEE
:1019F0005523138032AB0C241C8004881990204698
:101A0000189117921693FEF769FD169A1388159090
:101A100018461491FEF762FD584B299AFEF7F6FC22
:101A2000159A13901046149B12911946139A129B03
:101A3000FEF73AFCFEF766FD31A90880339830AA1C
:101A400010803498329B1F9C5C4300192FAB188088
:101A500033982EAC2080199805880E88AD196D0832
:101A60002DAE3580339D329FED192CAF3D800D8812
:101A70001888281840082BAD288033981190329888
:101A8000109011980F91109940182AA90880199860
:101A900000880E90179800880D90169800880C907A
:101AA00024980190299800900E980B910D990A9214
:101AB0000C9A0993259B0894079606970595FFF7BE
:101AC000B7FA0F9800880A990988169A1288249BF9
:101AD0000193299C0094259BFFF7AAFA0998008896
:101AE00008990988169A1288249B0193299C0094CE
:101AF000259BFFF79DFA0798008806990988169A92
:101B00001288249B0193299C0094259BFFF790FA4F
:101B1000059800880B990988169A1288249B0193CE
:101B2000299C0094259BFFF783FA25980190299919
:101B30000091134A134B19211D980493FFF798F94C
:101B400025980190299900910F4A1C201899049B0F
:101B5000FFF78EF925980190299900910B4A1220E0
:101B60002D21049BFFF784F900F006FA40F2D070B3
:101B7000FEF76AFF35B0F0BDE0C30030000004405E
:101B80008B8704100C80003080870410738704104A
:101B9000B0B583B00A46034602AC208001A801809C
:101BA00002996D462980019921800099018003B036
:101BB000B0BD000080B58CB00B900B981C498842DA
:101BC00018D1FFE700200A217F2232230A900991D1
:101BD0000892079300F01CFB0A9800900999089A54
:101BE000079B00F0BDF80A980999089A079B00F036
:101BF00043F91AE000200A217F2232230690059142
:101C00000492039300F004FB0B9A0F2001900698B6
:101C10000090084B16201921FFF78EF806980599B9
:101C2000049A039B00F028F9FFE70CB080BDC04682
:101C30000F2700001480003010B586B000207F21EF
:101C40000590059A04911146049A049B00F0E0FA6D
:101C5000059800900599049A049B00F081F80820EB
:101C600000901F4A02211023059C039020460291F8
:101C70000193FFF77BF9039800901A4A1820029904
:101C8000039BFFF773F903980090174A28200299E5
:101C9000019BFFF76BF903980090144A40200299CA
:101CA000039BFFF763F903980090114A5A200299A9
:101CB000039BFFF75BF9039800900E4A702002998E
:101CC000019BFFF753F90C4A05980599FEF7B8FFF9
:101CD00005980599049A049B00F0CEF806B010BD53
:101CE0006F630410D04304105F6304105763041043
:101CF000B8430410C04304107F63041083B001464E
:101D000002AA108000200190FFE70198B749498896
:101D1000884222D2FFE700200090FFE70098B349F5
:101D200009884908884213D2FFE702A80088010108
:101D300008430199AD4A128852084A430099511844
:101D40004900A94A5052FFE70098401C0090E5E77F
:101D5000FFE70198401C0190D7E703B07047C046E9
:101D6000F0B58EB0139C1D4616460F4603900290A8
:101D70000DA8019003980091019908800CA8009982
:101D800001800BA802800AAA138009AA1480008887
:101D9000019A1388C01AC30FC018400806AB1880F8
:101DA0000A980C9BC01A05AB18800D980C9B8F4CA1
:101DB000248864085C43001904AB188008A8002339
:101DC0000380FFE708A8008805A9098888422CDA63
:101DD000FFE707A800210180FFE707A8008806A900
:101DE000098888420FDAFFE704A8008807A9098854
:101DF00040184000F14900220A52FFE70798401CB2
:101E000007A90880E9E70D980C99089A8918491CD8
:101E1000E94A128852084A43801804A90880FFE75B
:101E20000898401C08A90880CCE70EB0F0BDC04659
:101E300080B584B00E4841F6000101220392FEF7FE
:101E40000FFE0C4803990160B948016000F00AFEDA
:101E5000002102900846019100F0CAF8FFF706FD44
:101E60000198FFF74BFF00F087F804B080BDC04633
:101E700080400050AC480050F0B593B01C46154669
:101E80000E460746099012A80890099807910899EC
:101E9000088011A80799018010A90A800FAA138051
:101EA0000B88069008980088181AC30FC0184008BD
:101EB0000CAB18800F98119BC01A0BAB18800898B8
:101EC0000088069B1B880988128805911946059B86
:101ED00004921A46049B039402950196009700F021
:101EE00097F9089801884900B44A5118069A13884E
:101EF000ED4C248864085C436300C9180A910EA95C
:101F000000230B80FFE70EA800880BA909888842F0
:101F100030DAFFE70DA800210180FFE70DA8008857
:101F20000CA9098888420DDAFFE70A98007800F0CA
:101F3000BDF90A98801C0A90FFE70D98401C0DA976
:101F40000880EBE712A8008840009C49081811A9F6
:101F500009880EAA12888918491CD34A1288520887
:101F60004A43510040180A90FFE70E98401C0EA902
:101F70000880C8E713B0F0BD80B584B08F480190E9
:101F8000C9480288438800200090009900F040F979
:101F900003A800990180FFE703A80088C249498887
:101FA00088421FDAFFE702A800210180FFE702A8AC
:101FB0000088BD490988490888420DDAFFE7019881
:101FC000007800F073F90198801C0190FFE70298F7
:101FD000401C02A90880EAE7FFE70398401C03A918
:101FE0000880D9E704B080BD88830030E0C30030AA
:101FF00080B582B0019000F081F800F00BF80198F4
:1020000000F0DEF8C820FEF71FFDAF2000F066F9F3
:1020100002B080BD80B584B0AE2000F05FF915201D
:1020200000F05CF90020039000F058F97F20029046
:1020300000F054F9752000F051F9039800F04EF9C2
:10204000029800F04BF9812000F048F9802000F060
:1020500045F9A02000F042F9512000F03FF9A120FD
:1020600000F03CF9039800F039F9A22000F036F9AD
:10207000039800F033F9A42000F030F9A82000F014
:102080002DF9029800F02AF9B12000F027F9F1208B
:1020900000F024F9B32000F021F9039800F01EF9B4
:1020A000AB2000F01BF9012000F018F9B62000F079
:1020B00015F90F20019000F011F9BE2000F00EF983
:1020C000019800F00BF9BC2000F008F9082000F09E
:1020D00005F9D52000F002F9622000F0FFF8FD209C
:1020E00000F0FCF8122000F0F9F804B080BD80B5D3
:1020F0000020FFF703FEFFF73FFF80BD80B584B0EF
:102100000B48012101606422039010460291019264
:10211000FEF79AFC0020039908600198FEF794FCF2
:102120000298039908600198FEF78EFC04B080BD08
:10213000B048005070B583B013460C46054602AE59
:10214000308001A80180684602803088564909889D
:10215000884207DCFFE701A8008853494988884284
:1021600001DDFFE725E002A80088C00700280FD1A5
:10217000FFE70098000102A90988490801AA12880E
:102180009201891849000D4A535A1843505210E0E1
:10219000684600880F21084002A90988490801AA59
:1021A0001288920189184900044A535A1843505220
:1021B000FFE703B070BDC046E0C300308883003045
:1021C00081B00090009838494860009800280CD0F1
:1021D000FFE70098012808D0FFE70098022804D004
:1021E000FFE70098032808D1FFE72F4880210180EE
:1021F000418000210181418107E02B48802101803D
:102200004180002101814181FFE701B07047C04654
:10221000F0B587B01C4615460E460746029006A844
:102220000190029800910199088005A80099018009
:1022300004A8028003A80380019802881A4B1B8817
:102240009A4215DCFFE705A80088174949888842AB
:102250000EDCFFE704A8008813490988884207DCE0
:10226000FFE703A8008810494988884201DDFFE79D
:1022700018E0152000F032F806A8007800F02EF8DB
:102280000498401EC0B200F029F8752000F026F82E
:1022900005A8007800F022F80398401EC0B200F0B4
:1022A0001DF8FFE707B0F0BDE0C3003010B584B003
:1022B000014603AA10701448012303601348002448
:1022C00004601278029010460191009300F012FB16
:1022D00000980299086004B010BDC04680B584B073
:1022E000014603AA107008480023036007480360F2
:1022F000127802901046019100F0FCFA0120029938
:10230000086004B080BDC046AC480050E4490050AD
:1023100010B5CAB049904891479249984021084069
:1023200080094090409800280DD0FFE749A8007828
:102330004007002803D5FFE74798469002E04898F9
:102340004690FFE7FFE7F94801F0B0FAF849369008
:10235000084601F0ABFA4699896943914399098887
:10236000449100213A914099002912D1FFE743A8F6
:10237000C078C00600280CD4FFE74399ED4801F06F
:1023800095FAED493590084601F090FA01213A910D
:102390005CE14498E949884206D1FFE7E84801F04A
:1023A00085FA02213A9150E14498000B052858D152
:1023B000FFE703203A904498C005400F3F904498AF
:1023C0008006400F3E904498072108403D90469873
:1023D0003E99890041583F9A9200805808184290CF
:1023E00046983D998900405841903E983D998842D1
:1023F0001BD1FFE7439944980205D24BD24C002AE7
:10240000349133903294319301D432983190319891
:102410003D99429A01920091CC49309008463499F6
:10242000339A309B01F042FA1AE04399449802052E
:10243000C44BC54C002A2F912E902D942C9301D47F
:102440002D982C902C984199429A01920091C04964
:102450002B9008462F992E9A2B9B01F027FAFFE725
:10246000F2E04498400B032856D1FFE703203A904E
:1024700044984005C00E3C9044988006400F3E9022
:102480004498072108403D9046983E99890040585D
:102490003C994018429046983D9989004058419097
:1024A0003D983E9988421BD1FFE743994498020525
:1024B000A44BA54C002A2A9129902894279301D453
:1024C0002898279027983D99429A01920091FB49BC
:1024D000269008462A99299A269B01F0E7F91AE0E6
:1024E000439944980205F24BF24C002A259124901E
:1024F0002394229301D42398229022984199429ABE
:1025000001920091EC49219008462599249A219B3B
:1025100001F0CCF9FFE796E04498000B082856D16B
:10252000FFE703203A9044984005C00E3C90449841
:102530008006400F3E904498072108403D90469801
:102540003E99890040583C994018429046983D99E0
:102550008900405841903D983E9988421BD1FFE741
:10256000439944980205D24BD24C002A20911F90E7
:102570001E941D9301D41E981D901D983D99429A5A
:1025800001920091CD491C90084620991F9A1C9BEE
:1025900001F08CF91AE0439944980205C44BC54CEC
:1025A000002A1B911A901994189301D41998189025
:1025B00018984199429A01920091BF491790084694
:1025C0001B991A9A179B01F071F9FFE73AE04498BA
:1025D000000B09282ED1FFE703203A9044A8007889
:1025E0003B9044984005400F3D90469880693B9948
:1025F0004018429046983D9989004058419043992F
:1026000044980205AA4BAB4C002A169115901494DD
:10261000139301D41498139013984199429A0192FC
:102620000091A549129008461699159A129B01F03F
:102630003DF906E004203A9044999C4801F036F9AF
:10264000FFE7FFE7FFE7FFE7FFE7FFE73A98032829
:1026500000D017E14098002800D0B3E0002045905A
:10266000FFE74598452800D9ABE0429845990C22F0
:102670004A4393498918496888423CD3FFE7429806
:1026800045990C224A438E4951180969884232D231
:10269000FFE745980C210A46424389488218127A7E
:1026A00039AB1A701A781F24224038AC22701A787D
:1026B00052091A701A789200824BD2582378DA4065
:1026C00001231A403792379A7F4B804C002A119190
:1026D00010900F940E9301D10F980E900E9845997B
:1026E000119A4A4310998A587A4B0D9018460D99C1
:1026F00001F0DCF865E0429845990C224A437049A4
:1027000089184968012212078918884254D3FFE7C3
:10271000429845990C224A43694951180969012296
:1027200012078918884247D214E0C046A8820410D4
:10273000968304106C8404106A830410ABBE0000FE
:1027400003840410E4850410E8850410C083041099
:10275000E183041045980C210A46424358488218E8
:10276000127A39AB1A701A781F24224038AC2270C2
:102770001A7852091A701A789200524BD25823785C
:10278000DA4001231A403792379A4F4B4F4C002AB8
:102790000C910B900A94099301D10A980990099819
:1027A00045990C9A4A430B998A58494B0890184608
:1027B000089901F07BF804E0FFE74598401C45903C
:1027C0004FE75EE042984449884259D3FFE7002032
:1027D0004590FFE74598452851D8FFE7429845992D
:1027E0000C224A4336498918496801221207891880
:1027F00088423FD3FFE7429845990C224A4330492B
:1028000051180969012212078918884232D2FFE75C
:1028100045980C210A46424329488218127A39AB5E
:102820001A701A781F24224038AC22701A78520984
:102830001A701A789200234BD2582378DA40012379
:102840001A403792379A204B204C002A0791069065
:102850000594049301D10598049004984599079A2A
:102860004A4306998A581D4B03901846039901F074
:102870001DF804E0FFE74598401C4590AAE7FFE7F4
:10288000FFE7FFE700F02CF8074801F00FF8FFE73B
:102890004698006801210843002801D0FFE7F7E7C8
:1028A00049984AB010BDC046A88204108582041021
:1028B000E4850410E8850410E1830410C08304104B
:1028C0003480003000F002400986041002860410B3
:1028D0001B830410ED8204100100001029840410F1
:1028E000FFE7FEE783B0029001910092002003B061
:1028F0007047000081B001466A4610701078064AA1
:102900001060FFE705480068C007002801D0FFE716
:10291000F8E701B07047C04620200650142006504A
:1029200080B582B00190019800F002F802B080BD3D
:1029300081B00090FFE70E4800680002002801D532
:10294000FFE7F8E700980B490860684600780A2816
:102950000CD1FFE7FFE7064800680002002801D518
:10296000FFE7F8E703480D210160FFE701B070477A
:10297000180007500000075080B584B002900298FC
:10298000401E000E002803D0FFE70120039013E053
:102990000298401E0A4908600020C14303220190AA
:1029A0000846114600F0C4FD06480199016006483A
:1029B000072202600391FFE7039804B080BDC04680
:1029C00014E000E018E000E010E000E081B01F48F3
:1029D00001684A1C02600029009120D0FFE700989E
:1029E00064281DD0FFE70098C8281AD0FFE740F2FE
:1029F0002C100099814215D0FFE740F29010009909
:102A0000814210D0FFE740F2F410009981420BD0D0
:102A1000FFE740F258200099814206D009E013E018
:102A200012E011E010E00FE00EE008480021016024
:102A30000AE0064800680649884204D3FFE70348D5
:102A400000210160FFE7FFE701B0704788C3003055
:102A50005902000001480249086070470000041054
:102A600008ED00E00020704780B5A2B0AF4800F04C
:102A70001DFFAF491C90084600F018FFAD4945F214
:102A800000020A60AC4901220A60AC4B1A60AC4AF1
:102A90001B9010461A91FDF741FF00201A9908601B
:102AA00020901F901E901D90FFE71D98002800D0D9
:102AB0003AE1FFE7CF4800684004002800D58EE0E7
:102AC00000201E90CC48006821A908701F9800289B
:102AD0000DD1FFE721A80078722808D1FFE71E98E2
:102AE000002804D1FFE701201F901E90FFE71F98E8
:102AF00001280ED1FFE721A80078652809D1FFE75A
:102B00001E98002805D1FFE702201F9001201E908B
:102B10000BE01F98012807D1FFE71E98002803D17A
:102B2000FFE700201F90FFE7FFE71F9802280ED164
:102B3000FFE721A80078612809D1FFE71E98002847
:102B400005D1FFE703201F9001201E900BE01F9886
:102B5000022807D1FFE71E98002803D1FFE70020D5
:102B60001F90FFE7FFE71F9803280ED1FFE721A87A
:102B70000078642809D1FFE71E98002805D1FFE7F7
:102B800004201F9001201E900BE01F98032807D1FE
:102B9000FFE71E98002803D1FFE700201F90FFE702
:102BA000FFE71F9804280DD1FFE721A800787928B6
:102BB00008D1FFE71E98002804D1FFE701202090EC
:102BC0001E900BE01F98042807D1FFE71E980028ED
:102BD00003D1FFE700201F90FFE7FFE76AE7209897
:102BE000002800D19FE057481990FDF73FFB0021D6
:102BF00018900846199A17911146189A00F066FC29
:102C0000179800F0BFF850481690FDF72FFB179962
:102C1000159008461699159A00F058FC179800F080
:102C2000B1F84A4800F042FE494914900846139111
:102C3000FDF71CFB1799129008461399129A00F0A1
:102C400045FC179800F09EF8424800F02FFE4249DC
:102C5000119008461091FDF709FB17990F9008464F
:102C600010990F9A00F032FC179800F08BF83B484F
:102C700000F01CFE3A490E9008460D91FDF7F6FA59
:102C800017990C9008460D990C9A00F01FFC1798A4
:102C900000F078F8334800F009FE33490B900846FD
:102CA0000A91FDF7E3FA1799099008460A99099ADB
:102CB00000F00CFC179800F065F82C480890FDF720
:102CC000D5FA1799079008460899079A00F0FEFB75
:102CD000179800F057F8264800F0E8FD25490690BF
:102CE00008460591FDF7C2FA179904900846059920
:102CF000049A00F0EBFB179800F044F81E4800F02F
:102D0000D5FD0B490390084600F0D0FD1B49029009
:102D1000084600F0CBFD1A490190084600F0C6FDB8
:102D200001211D91FFE7C0E622B080BD9588041007
:102D300033880410C0400050DC480050D848005090
:102D400040420F00CC420410A743041064880410D2
:102D50007D43041028890410604304108A890410FC
:102D6000D14204101D8A041051430410FB42041088
:102D7000C68804102543041059890410F7880410EC
:102D8000A387041080B584B0039002A800210170CD
:102D900001A801700091FFE70098002828D1FFE703
:102DA000FFE7CC4800684004002820D4FFE7CA4869
:102DB000006802A908700398002806D0FFE702A85F
:102DC0000178C94800F072FDFFE701A800784F289C
:102DD00008D1FFE702A800784B2803D1FFE70120C4
:102DE000009003E0029801A90870FFE7D9E7D3E754
:102DF00004B080BD183007500030075080B59EB039
:102E00001D901C911BA8002101701A911991189115
:102E100008A8402200911146FDF711FA009807908A
:102E20000690059004900390A74800F03FFDFFE74F
:102E30001A98002800D09AE0FFE7A64800684004EE
:102E4000002800D592E000201990A34800681BA933
:102E500008700978A44800F029FD189900290DD1BF
:102E6000FFE71BA800782B2808D1FFE71998002856
:102E700004D1FFE7012018901990FFE71898012866
:102E80000ED1FFE71BA80078492809D1FFE7199860
:102E9000002805D1FFE702201890012019900BE0CF
:102EA0001898012807D1FFE71998002803D1FFE7F8
:102EB00000201890FFE7FFE7189802280ED1FFE7DF
:102EC0001BA80078502809D1FFE71998002805D1E0
:102ED000FFE703201890012019900BE018980228B2
:102EE00007D1FFE71998002803D1FFE700201890C9
:102EF000FFE7FFE7189803280ED1FFE71BA800782B
:102F0000442809D1FFE71998002805D1FFE70420DC
:102F10001890012019900BE01898032807D1FFE7BB
:102F20001998002803D1FFE700201890FFE7FFE77A
:102F3000189804280DD1FFE71BA800782C2808D189
:102F4000FFE71998002804D1FFE701201A90199093
:102F50000CE01898042807D1FFE71998002803D13E
:102F6000FFE700201890FFE7FFE766E760E75748B4
:102F700000F09CFCFFE71A98002800D17FE0FFE7F3
:102F8000544800684004002878D4FFE7524800689D
:102F90001BA908700978514800F088FC069900299F
:102FA0000FD1FFE71B98303802A908701D98002840
:102FB00006D0FFE702A80178494800F077FCFFE758
:102FC000FFE70698012808D1FFE71BA800782C2806
:102FD00003D0FFE700201A90FFE70398002811D0E4
:102FE000FFE706980499059A8918C91C884209DAEE
:102FF000FFE71B980699059A891A08AA8918C91E1D
:103000000870FFE70698022825DBFFE703980028F1
:1030100021D1FFE71BA800783A280FD1FFE7012054
:1030200003900498401E04901D98002805D0FFE7E7
:1030300004992C4800F03AFCFFE70BE004980A21C1
:1030400041431BA800780818303804900598401CAC
:103050000590FFE7FFE7039800280BD0FFE70698ED
:103060000499059A8918C91C884203D1FFE70020FA
:103070001A90FFE70698401C069081E77BE7002046
:103080000190FFE70198049988420BDCFFE7019863
:1030900008A9095C1C9A12681154FFE70198401CAA
:1030A0000190EFE704981C994860094808A900F0CE
:1030B000FDFB1D99002904D0FFE71C9800F0B6FB2A
:1030C000FFE701201EB080BDEC890410F08A0410D7
:1030D0001888041018300750003007507F8A0410F9
:1030E000F487041006880410848A041080B592B016
:1030F000119010910F9200200E90109840680C9043
:10310000404800F0D3FBFFE70C98002809D0FFE708
:103110000E98401C0E900C980A2190FBF1F00C9038
:10312000F2E70E98401C0121FDF7B0F80D900D98C4
:1031300010994A68344900F0C9FB0F9900290FD152
:10314000FFE7119832490B9008460A91FDF78EF877
:103150000B99099008460A99099A00F0B7F913E00B
:103160000F9801280FD1FFE71198284908900846C9
:103170000791FDF77BF80899069008460799069A8B
:1031800000F0A4F9FFE7FFE711980D990E9A00F0FF
:103190009DF911981F49059008460491FDF766F8BE
:1031A0000599039008460499039A00F08FF9119845
:1031B000FFF7E8FD119810990A68496802911146D5
:1031C000029A00F083F91198049901900846FDF7DE
:1031D0004DF80199009008460499009A00F076F99C
:1031E0001198FFF7CFFD0D9801F006F8119800280F
:1031F00004D0FFE7084800F059FBFFE7012012B0B8
:1032000080BDC046BB890410878A0410ED420410BB
:10321000DF420410B54304109587041010B5A0B028
:103220001F90A54818A90CC80CC11CC81CC10020BF
:103230001790A249169008461591FDF717F81799AF
:10324000081817909E48016814900846FDF70EF87C
:103250001799081817901898400017994018401CA3
:10326000179014984068FDF701F8179908181790FF
:103270001998400017994018401C179014988068BE
:10328000FCF7F4FF1799081817901A98400017993F
:103290004018401C17901498C068FCF7E7FF179976
:1032A000081817901B98400017994018401C179059
:1032B00014980069FCF7DAFF1799081817901C9802
:1032C00040001799081817907E481390FCF7CEFF1E
:1032D000179908181790012008211290FCF7D6FFC3
:1032E0001E9017981299FCF7D1FF1E990860179845
:1032F0001E9948601E9800681599FCF7ABFF1E994F
:103300000968149A1368119008461946FCF7A2FF41
:1033100018994900491C109008461299FCF7B6FF0D
:103320001D901F981D99189A520000F047F91E9899
:1033300000681D99FCF78EFF1D990F90084600F05C
:103340005BFF1E98006860490E91FCF783FF1E9991
:103350000968149A53680D9008461946FCF77AFFDD
:1033600019994900491C0C9008461299FCF78EFFE8
:103370001D901F9811301D99199A520000F01EF9E6
:103380001E9800681D99FCF765FF1D990B90084673
:1033900000F032FF1E9800680E99FCF75BFF1E9943
:1033A0000968149A93680A9008461946FCF752FF78
:1033B0001A994900491C099008461299FCF766FFC2
:1033C0001D901F982A301D991A9A520000F0F6F8A5
:1033D0001E9800681D99FCF73DFF1D99089008464E
:1033E00000F00AFF1E9800680E99FCF733FF1E9943
:1033F0000968149AD368079008461946FCF72AFF13
:103400001B994900491C069008461299FCF73EFF9B
:103410001D901F9843301D991B9A520000F0CEF862
:103420001E9800681D99FCF715FF1D990590084628
:1034300000F0E2FE1E9800680E99FCF70BFF1E9943
:103440000968149A1369049008461946FCF702FFAC
:103450001C994900491C039008461299FCF716FF75
:103460001D901F985C301D991C9A520000F0A6F820
:103470001E9800681D99FCF7EDFE1D990290084604
:1034800000F0BAFE1E9800681399FCF7E3FE1E993F
:103490000190084600F0CAF91E991698169AFFF78F
:1034A00025FE1E9909680090084600F0A5FE1E98AA
:1034B00000F0A2FE20B010BDB84204100663041054
:1034C0001C800030186304100463041080B584B0BD
:1034D00003900291019200200090FFE7009801996B
:1034E00088421DDAFFE7FFE70E4800680002002867
:1034F00001D5FFE7F8E702980099405C0A490860A7
:103500000398002807D0FFE702980099415C07481C
:1035100000F0CCF9FFE7FFE70098401C0090DDE7E2
:1035200004B080BD1830075000300750848A041062
:1035300070B582B0019000910198002814D4FFE783
:1035400001980321C9430840164A8058019B9C07F3
:10355000E40EFF25A540A843009DAD01EDB2A540B6
:1035600028430B40985018E001980F210840083874
:103570000322D24310400A4BC058019CA507ED0E10
:10358000FF26AE40B043009EB601F6B2AE403043D7
:103590000C40083C1440E050FFE702B070BDC0464C
:1035A0001CED00E000E400E080B582B001900091E5
:1035B0000198FFF7B5F9019802B080BD86B005907B
:1035C00004910392002001900090FFE70098039976
:1035D000884243DAFFE70098C10F4018401001907D
:1035E0000098C10F411801229143401A002807D1C9
:1035F000FFE705980199405C000902A9087007E0FF
:1036000005980199405C0F21084002A90870FFE766
:1036100002A8007800280BD4FFE702A80078092848
:1036200006DCFFE7029830300499009A885410E0D5
:1036300002A800780A280BDBFFE702A800780F2811
:1036400006DCFFE7029857300499009A8854FFE798
:10365000FFE7FFE70098401C0090B7E706B070470F
:1036600080B5BCB000203B903A90399038901AA9B0
:103670007522179008461146FCF7E1FD179819903E
:1036800018905C490846169100F010F95A491590B7
:103690000846149100F00AF958491390084600F0C2
:1036A00005F914991290084600F000F95449119058
:1036B000084600F0D7F8109000F0DAF85149086099
:1036C00008686421B0FBF1F0FFF756F916990F90E6
:1036D000084600F0EBF814990E90084600F0E6F862
:1036E00049490D90084600F0E1F814990C900846FD
:1036F00000F0DCF80B90FEF79BFB169800F0D6F874
:1037000014990A90084600F0D1F8404909900846FB
:1037100000F0CCF814990890084600F0C7F807901C
:10372000FFF7A2F9FFE73A480068002827D1FFE732
:10373000FFE737480068002801D1FFE7F9E719984B
:10374000414248411990334800F0B0F819990029D6
:103750000BD0FFE700201890304800F0A7F8069043
:1037600000F08CF8FEF768FA08E02B4800F09EF8AD
:10377000059000F089F8FEF7BAFCFFE7FFE728485C
:10378000006800280ED1FFE7FFE725480068002801
:1037900001D1FFE7F9E7234800F088F80490FDF72E
:1037A000F9F8FFE71998002822D0FFE71AA800F0DF
:1037B00071F839901898401C189018983C2816DB1E
:1037C000FFE700201890399800280FD0FFE716482F
:1037D00000F06CF81AA903900846029100F060F816
:1037E000029901900846FFF719FDFFE7FFE7FFE7A1
:1037F00099E7C0464C8A0410A3870410758B041007
:10380000B51B041030800030138B0410448B04105F
:10381000404800508A8A0410CC8A0410E08A0410C0
:1038200044480050AB8A0410F38A041080B584B079
:103830000390094800F03AF803994968074A029052
:10384000104600F033F803990968054A01901046C4
:1038500000F02CF804B080BDD4870410E687041073
:103860002588041003B40148019001BDA97D000022
:1038700003B40148019001BD797D000003B4014803
:10388000019001BD997D000003B40148019001BD84
:10389000917D000003B40148019001BD897D0000C5
:1038A00003B40148019001BDB97D00000FB410B50B
:1038B00003A9044B044A029800F0FCF810BC08BCB1
:1038C00004B01847A93504108CC300300FB410B5EC
:1038D00004A9074B02AA039800F0ECF8044602A9D9
:1038E000002000F083FC204610BC08BC04B0184740
:1038F000ED4104102021020C01D010211046020AD3
:1039000001D010460839020901D01046091F82086B
:1039100001D01046891E420801D0881E7047081A3F
:10392000704702E008C8121F08C1002AFAD1704788
:103930007047002001E001C1121F002AFBD170472F
:10394000F0B51FB486B00998089A030D0021024310
:1039500014D05148514A18185043051411980128A1
:1039600010981AD0281A401C00264D4F4D49009639
:1039700001910490002812DA444211E011980124C8
:1039800049A3012801D11098C1430698119A846077
:103990000360C26041600BB0F0BD4042E4E7044602
:1039A000210500203F4A001C51410391029012E082
:1039B000E00707D032463B4601990098FCF726FD08
:1039C0000191009032463B4610461946FCF71EFD19
:1039D00006460F466410002CEAD10498039B002889
:1039E000029A0999089806DAFCF710FD019B009AE3
:1039F000FCF70CFD05E0FCF76DFE019B009AFCF75F
:103A000069FE04460E460022284BFCF7FBFE03D855
:103A10000020C043014607E00022254B20463146E6
:103A2000FCF742FCFCF7CEFE102409E0002C0ADB78
:103A30000A220023FCF78AFD079B30321A55641EC8
:103A400002460A43F2D11122641C079B121B1C1967
:103A5000119B012B03D0012308430ED10AE0084338
:103A600004D0112010900020119077E71098151ABB
:103A70006D1E0BE01098824202DD00236D1C03E0F6
:103A8000824201DA00236D1E002BEED006981199B8
:103A90008260C16030C07EE701FCFFFF104D000076
:103AA000000014400000F03F300000000000F04330
:103AB0000000E03FFFB597B00646002518E2252834
:103AC00077D100242746FD49049400E00443761C86
:103AD00032780120203A90400842F7D130782A28E5
:103AE0000ED00222307801463039092916D80499BF
:103AF0000A235943303940181443761C0490F1E7E7
:103B0000189802C804911890002904DA0120400393
:103B100004434842049002200443761C30782E2847
:103B200014D1042004437078761C2A2809D11898EF
:103B3000761C80C8189009E00A214F43303FC7190E
:103B4000761C3078014630390929F5D930786C284F
:103B500010D006DC4C281AD068280ED06A2817D15D
:103B600004E0742813D07A2812D110E00120400517
:103B700004430CE00121090501E0032109050C4380
:103B80007178814203D1012000052418761C761C2F
:103B90003078119066280BD013DC58287DD009DCD2
:103BA00000287BD04528F6D04628F4D047281AD1E3
:103BB000A5E118E0632835D0642870D0652812D1BB
:103BC0009DE170286CD008DC6728F1D069287BD093
:103BD0006E280DD06F2806D1BAE073282ED0752834
:103BE00071D0782859D01A9A199990476D1C7EE1A6
:103BF0006002400F022809D003280DD0042818982D
:103C000001680DD00D60001D189070E11898EA173A
:103C100001680D604A60F6E7189801680D80F2E7C8
:103C20000D70F0E718986A4601781172001D18901F
:103C30000020507202A80090012005E0189802C8E8
:103C4000189000200091C04361070DD5002101E0CC
:103C50000199491C0191B94212DA8142F8DB009ABC
:103C6000515C0029F4D10BE0002101E00199491CCD
:103C700001918142FADB019A0099895C0029F5D112
:103C8000019904981A9B471A21463846199A00F060
:103C900097FA0199401945180BE04FE02CE113E029
:103CA0004EE0009800990078491C00911A9A1999E1
:103CB00090470198401E0190401CF2D121463846A1
:103CC0001A9B199A10E137E00A2000210090019117
:103CD0006002410F022907D0189A01CA1892C21730
:103CE0009446032908D00AE01898C01DC108C900ED
:103CF00005C91891944607E000B2C21794460429FA
:103D000002D140B2C1178C4600226146944506DAC2
:103D10000A460021404291418C462D2102E02105B6
:103D200004D52B216A461173012103E0E10701D07C
:103D30002021F7E7029155E00A200AE0102008E070
:103D4000102000900021042004430191082703E083
:103D500008200021019100906002410F022907D044
:103D6000189A01CA189200229446032908D008E044
:103D70001898C01DC108C90005C91891944603E0F0
:103D800080B2042900D1C0B200210291210729D5B7
:103D90001199702906D0009A1021019B4A401A43BC
:103DA00005D00EE040216A461173012108E061460A
:103DB000014306D030216A461173119951730221D3
:103DC0000291009A0821019B4A401A430AD1614698
:103DD000014301D1610705D530216A4611730121E4
:103DE0007F1E02911199582904D035A10E910DA979
:103DF0000D910DE037A1F9E76146019B009AFCF7B0
:103E0000A5FB0E9B8C469B5C0D9A521E0D92137067
:103E100061460143F0D10D9805A9081A20300190A0
:103E2000600703D501200004844300E001270198C6
:103E3000874201DD381A00E0002001990090411806
:103E4000029809180498401A0490E00306D4214609
:103E50001A9B199A049800F0B3F94519002706E057
:103E600003A81A9AC05D199990476D1C7F1C02988F
:103E70008742F5DBE0030CD521461A9B199A04987A
:103E800000F09EF9451904E01A9A302019999047DC
:103E90006D1C0099481E00900029F5DC08E00D9883
:103EA0000D990078491C0D911A9A199990476D1C2B
:103EB0000199481E01900029F1DC63E10928010005
:103EC0003031323334353637383961626364656690
:103ED0000000000030313233343536373839414252
:103EE000434445460000000000F05AF94519761C8D
:103EF0003078002800D0E2E528461BB0F0BD60070E
:103F000000D406271898C01DC108C90048680A686F
:103F10000831C30FDB071891190001D09CA108E0FC
:103F2000210501D59BA104E0E10701D09AA100E0A1
:103F30009AA1430011985B08109165280CD006DC0B
:103F4000452809D046281DD0472841D141E06628A0
:103F500018D067283CD13CE00021112F01DB112053
:103F600000E0781C0191009008A911A8FFF7E8FC77
:103F7000139905910021119A15927F1C12980197AF
:103F8000009150E00120C00703900120019008A992
:103F9000009711A8FFF7D4FC139A149905920022F8
:103FA000119B009212981593059A0192002901D055
:103FB000104602E0791C40180190381A01D501988A
:103FC00004E04042401E0090781C0190C01B02900B
:103FD00043E0012F00DA01270021112F01DD11201C
:103FE00000E038460191009008A911A8FFF7A8FC4D
:103FF00013990591119A0021129815920091019739
:1040000021070CD40599B94201DB019900E0019127
:10401000012904DD159A491E515C302906D0B842A9
:1040200001DA011D05DA0121029115E00199491E0D
:10403000EDE7002805DC0099411800910199091A63
:1040400003E0019A411C914200DD01910099401A60
:10405000401C02900120C0070390200706D402995B
:104060000198814202DB0020C04302900020694693
:10407000C87707AF012103980337C907884224D0C6
:10408000022011902B201290039800280CDA404255
:1040900003902D20129007E00A210398FCF7D8FB2B
:1040A00030317F1E039039701199481E11900029FC
:1040B000F2DC03980028EFD1791E1298087030784E
:1040C000202108404530BF1E387006A8C01BC01D07
:1040D000039010980078002800D001200199411821
:1040E0000298C0170918039809180498401A401E2E
:1040F0000490E00306D421461A9B199A049800F014
:104100005FF8451910980078002803D01A9A199979
:1041100090476D1CE00324D521461A9B199A0498F8
:1041200000F04EF845191CE00098002807DB0099C4
:104130000598884203DD1598405C199901E01999AA
:1041400030201A9A904700986D1C401C00900298ED
:10415000401E0290002804D11A9A2E2019999047E7
:104160006D1C0199481E01900029DDDC05E03878BE
:104170001A9A7F1C199990476D1C0399481E039049
:104180000029F4DC21461A9B199A0498ACE6000039
:104190002D0000002B0000002000000000000000A7
:1041A000F8B5044600251E461746880404D405E0E9
:1041B00039462020B0476D1C641EF9D52846F8BD4D
:1041C000FFB50446002581B01E46C80301D530273F
:1041D00000E02027880404D505E038460399B0475D
:1041E0006D1C641EF9D5284605B0F0BD0A68531C45
:1041F0000B6010707047000010B5002823D0124BE0
:104200000022001F196803E0814203D80A4649686A
:104210000029F9D1002A0AD01368841A9C4204D1DB
:10422000006818181060104602E0506000E0186046
:10423000002907D002680B1A934203D10B68D218E9
:1042400002604968416010BD00800030F0B50B305D
:10425000C108C900144F0026144A0FE003688B42BE
:104260000BD38B4205D95C1A4318456830C3083B11
:1042700000E04368136002C004E0021D10680028DB
:10428000ECD13046002803D13868002801D0002046
:10429000F0BD064A06481060064A121AD208D2003B
:1042A00044C001203860D7E704800030008000302F
:1042B000F4C30030F0C3003010000000180000000C
:1042C00018000000180000001800000041540D0AFA
:1042D0000041542B4349504D55583D310D0A004182
:1042E000542B43495053454E443D302C0041542BF0
:1042F00043495053454E443D312C0041542B4349D2
:104300005053544152543D302C22544350222C22BD
:104310003139322E3136382E33352E323132222C8D
:1043200038300D0A0041542B4349505354415254E4
:104330003D312C22544350222C223139322E313639
:10434000382E33352E323132222C323335310D0AAC
:104350000041542B4349505354415455530D0A00C6
:1043600041542B4349505354413D223139322E316F
:1043700036382E33352E313237220D0A0041542B78
:1043800043574A41503D22534B5F5769466947495D
:10439000474137454231222C2231363033303034D8
:1043A000353030220D0A0041542B43574D4F4445C0
:1043B0003D310D0A000D0A00C3BD42524E423CC3BE
:1043C0000FFE300226DA26DA26DA26DA30020FFE6F
:1043D0001854321C1C325418000000000000000069
:1043E000000000000010101010100000100000006D
:1043F000006C484800000000000000000014142871
:104400007C287C285050000000103840403848700C
:1044100010100000002050200C700814080000004C
:104420000000001820205448340000000010101034
:10443000100000000000000000080810101010100C
:10444000100808000020201010101010102020006C
:1044500000107C1028280000000000000000101050
:1044600010FE1010100000000000000000000018F6
:104470001030200000000000007C00000000000060
:1044800000000000000000303000000000040408BC
:1044900008101020204000000038444444444444A4
:1044A0003800000000301010101010107C000000C8
:1044B00000384404081020447C0000000038440404
:1044C0001804044438000000000C141424447E0432
:1044D0000E000000003C2020380404443800000096
:1044E000001C20407844444438000000007C440410
:1044F00008080810100000000038444438444444C0
:104500003800000000384444443C040870000000B7
:1045100000000030300000303000000000000018C3
:10452000180000183020000000000C10608060109F
:104530000C000000000000007C007C000000000077
:104540000000C02018041820C0000000000018243B
:1045500004081000300000003844444C54544C40CF
:10456000443800000030102828287C44EE00000069
:1045700000F8444478444444F8000000003C4440BF
:10458000404040443800000000F04844444444485F
:10459000F000000000FC445070504044FC0000005B
:1045A000007E22283828202070000000003C444073
:1045B000404E44443800000000EE44447C444444EF
:1045C000EE000000007C1010101010107C000000A5
:1045D000003C0808084848483000000000EE444805
:1045E00050704844E6000000007020202020242461
:1045F0007C00000000EE6C6C54544444EE0000005B
:1046000000EE64645454544CEC0000000038444400
:1046100044444444380000000078242424382020F6
:10462000700000000038444444444444381C0000F6
:1046300000F8444444784844E200000000344C4010
:10464000380404645800000000FE9210101010108E
:104650003800000000EE4444444444443800000064
:1046600000EE4444282828101000000000EE4444C6
:10467000545454542800000000C644281010284404
:10468000C600000000EE442828101010380000007A
:10469000007C4408101020447C00000000382020DA
:1046A000202020202020380000402020201010084A
:1046B000080800000038080808080808080838003A
:1046C000001010284400000000000000000000005E
:1046D00000000000000000FE0010080000000000C4
:1046E0000000000000000038443C44443E0000004C
:1046F00000C0405864444444F80000000000003CFE
:104700004440404438000000000C04344C4444440D
:104710003E00000000000038447C40403C000000A7
:10472000001C207C202020207C000000000000369F
:104730004C4444443C04380000C040586444444461
:10474000EE00000000100070101010107C0000003F
:1047500000100078080808080808700000C0405CD5
:1047600048705048DC00000000301010101010108D
:104770007C000000000000E854545454FE00000087
:10478000000000D864444444EE00000000000038FB
:104790004444444438000000000000D864444444C9
:1047A0007840E000000000364C4444443C040E00D5
:1047B0000000006C302020207C0000000000003C45
:1047C00044380444780000000000207C202020228F
:1047D0001C000000000000CC4444444C36000000A3
:1047E000000000EE4444282810000000000000EE05
:1047F0004454545428000000000000CC4830304895
:10480000CC000000000000EE4424281810107800AE
:104810000000007C481020447C00000000081010BC
:1048200010102010101008000010101010101010A0
:1048300010100000002010101010081010102000A0
:1048400000000000002458000000000000000000EC
:104850000000000000000000000000000000000058
:104860000000000000000000000000000000000048
:104870000000000000000000000000000000000038
:104880000000000000000000000000000000000028
:104890000000000000000000000003800003800012
:1048A0000380000380000380000380000380000376
:1048B00080000380000100000100000000000000F3
:1048C00000038000038000000000000000000000E2
:1048D00000000000000000000000000000000000D8
:1048E00000000000000E70000E70000E700004202A
:1048F000000420000420000420000000000000004C
:1049000000000000000000000000000000000000A7
:104910000000000000000000000000000000000097
:1049200000000000000000000000066000066000BB
:104930000660000660000660003FF8003FF80006D1
:1049400060000CC0003FF8003FF8000CC0000CC035
:10495000000CC0000CC0000CC000000000000000F3
:104960000000000000000000000000000000000146
:10497000800001800007B0000FF000187000187070
:10498000001C00000F800007E00000F0001830005D
:104990001C30001C70001FE0001BC00001800001E3
:1049A0008000018000018000000000000000000085
:1049B000000000000000000000000780000FC000A1
:1049C0001CE0001860001860001CE0000FF80007F1
:1049D000E0001FF00007380006180006180007382E
:1049E0000003F00001E000000000000000000000F3
:1049F00000000000000000000000000000000000B7
:104A0000000000000000000003F00007F0000C6050
:104A1000000C00000C00000600000700000F9C00C6
:104A20001DFC0018F0001870000FFC0007DC0000EF
:104A30000000000000000000000000000000000076
:104A400000000000000000000000000000038000E3
:104A5000038000038000010000010000010000014C
:104A60000000000000000000000000000000000046
:104A70000000000000000000000000000000000036
:104A80000000000000000000000000000000000026
:104A9000000000180000380000700000F00000E086
:104AA0000000E00001C00001C00001C00001C00022
:104AB00001C00001C00000E00000E0000070000044
:104AC0007000003800001800000000000000000026
:104AD000000000000000000000001800001C0000A2
:104AE0000E00000E00000700000700000380000316
:104AF0008000038000038000038000038000070023
:104B0000000700000F00000E00001C00001800004D
:104B10000000000000000000000000000000000095
:104B200000000180000180000180001DB8001FF816
:104B30000007E00003C00003C0000660000660003C
:104B40000000000000000000000000000000000065
:104B50000000000000000000000000000000000055
:104B60000000000000000000000000000000000045
:104B70000180000180000180000180000180003F71
:104B8000FC003FFC000180000180000180000180EA
:104B90000001800000000000000000000000000094
:104BA0000000000000000000000000000000000005
:104BB00000000000000000000000000000000000F5
:104BC00000000000000000000000000000000000E5
:104BD00000000000000000E00000C00001C0000173
:104BE00080000180000300000300000000000000BE
:104BF00000000000000000000000000000000000B5
:104C00000000000000000000000000000000001F85
:104C1000F8001FF800000000000000000000000085
:104C20000000000000000000000000000000000084
:104C30000000000000000000000000000000000074
:104C40000000000000000000000000000000000064
:104C50000000000000000000000000000000000054
:104C600000000000000003C00003C00003C00000FB
:104C70000000000000000000000000000000000034
:104C8000000000000018000018000038000030008C
:104C900000700000600000600000C00000C0000163
:104CA00080000180000300000300000600000600F1
:104CB000000E00000C00001C00001800001800008E
:104CC00000000000000000000000000000000000E4
:104CD000000003C00007E0000C30000C3000181882
:104CE00000181800181800181800181800181800D4
:104CF0001818000C30000C300007E00003C0000062
:104D000000000000000000000000000000000000A3
:104D1000000000000000000000000080000780008C
:104D20001F80001D800001800001800001800001C3
:104D3000800001800001800001800001800001806E
:104D4000001FF8001FF80000000000000000000035
:104D50000000000000000000000000000000000053
:104D6000000007C0001FF000383000301800301875
:104D70000000180000300000600001C00003800047
:104D80000600000C00001800003FF8003FF800008B
:104D90000000000000000000000000000000000013
:104DA0000000000000000000000003C0000FE00051
:104DB0000C700000300000300000600003C00003F1
:104DC000E0000070000018000018000018001838FB
:104DD000001FF0000FC000000000000000000000F5
:104DE00000000000000000000000000000000000C3
:104DF000000000E00001E00001E000036000066048
:104E0000000660000C60000C60001860003060005C
:104E10003FF8003FF80000600003F80003F80000CE
:104E20000000000000000000000000000000000082
:104E3000000000000000000000001FF0001FF00054
:104E40001800001800001800001BC0001FF0001C14
:104E50003000001800001800001800001800303062
:104E6000003FF0000FC00000000000000000000044
:104E70000000000000000000000000000000000032
:104E8000000000F80003F8000700000E00000C000E
:104E9000001800001BC0001FF0001C300018180094
:104EA0001818001818000C38000FF00003E000007C
:104EB00000000000000000000000000000000000F2
:104EC000000000000000000000001FF8001FF800B4
:104ED0001818001838000030000030000070000082
:104EE000600000600000E00000C00000C00001C0E1
:104EF00000018000018000000000000000000000B0
:104F000000000000000000000000000000000000A1
:104F1000000007E0000FF0001C38001818001818F7
:104F2000000C300007E00007E0000C30001818000B
:104F30001818001818001C38000FF00007E00000D7
:104F40000000000000000000000000000000000061
:104F50000000000000000000000007C0000FF0008B
:104F60001C30001818001818001818000C38000F12
:104F7000F80003D80000180000300000700000E0C6
:104F8000001FC0001F000000000000000000000023
:104F90000000000000000000000000000000000011
:104FA000000000000000000000000000000003C03E
:104FB0000003C00003C0000000000000000000006B
:104FC00000000000000003C00003C00003C0000098
:104FD00000000000000000000000000000000000D1
:104FE00000000000000000000000000000000000C1
:104FF00000000000000000F00000F00000F00000E1
:10500000000000000000000000000000E00001C0FF
:105010000001800001800003000002000000000089
:105020000000000000000000000000000000000080
:105030000000000000000000001C00003C0000F028
:105040000003C0000F00003C0000F000003C000026
:105050000F000003C00000F000003C00001C000036
:105060000000000000000000000000000000000040
:105070000000000000000000000000000000000030
:105080000000000000000000007FFC007FFC00002A
:1050900000000000007FFC007FFC0000000000001A
:1050A0000000000000000000000000000000000000
:1050B00000000000000000000000000000000000F0
:1050C00000000000000000007000007800001E00DA
:1050D0000007800001E000007800001E000078005A
:1050E00001E0000780001E00007800007000000052
:1050F00000000000000000000000000000000000B0
:105100000000000000000000000000000007C000D8
:105110000FE0001870001830001830000070000018
:10512000E00003C000038000030000000000000056
:105130000007000007000000000000000000000061
:10514000000000000000000000000000000000005F
:10515000000003E00007F0000E38000C180018787B
:105160000018F80019D8001998001998001998002B
:1051700018F8001878001800000C00000E1800073E
:10518000F80003E000000000000000000000000044
:10519000000000000000000000000000001F800070
:1051A0001FC00001C000036000036000063000065D
:1051B00030000C30000FF8001FF800180C00300C05
:1051C00000FC7F00FC7F00000000000000000000E9
:1051D00000000000000000000000000000000000CF
:1051E00000000000007FE0007FF000183800181871
:1051F000001818001838001FF0001FF800181C00D5
:10520000180C00180C00180C007FF8007FF000004C
:10521000000000000000000000000000000000008E
:105220000000000000000000000000000003EC008F
:105230000FFC001C1C00180C00300C00300000306B
:105240000000300000300000300000180C001C1C72
:10525000000FF80003F00000000000000000000054
:10526000000000000000000000000000000000003E
:1052700000000000007FC0007FF000183800181800
:1052800000180C00180C00180C00180C00180C006A
:10529000180C001818001838007FF0007FE000009C
:1052A00000000000000000000000000000000000FE
:1052B000000000000000000000000000007FF80077
:1052C0007FF8001818001818001998001980001F9E
:1052D00080001F8000198000199800181800181805
:1052E000007FF8007FF800000000000000000000D0
:1052F00000000000000000000000000000000000AE
:1053000000000000003FFC003FFC000C0C000C0CF7
:10531000000CCC000CC0000FC0000FC0000CC0007F
:105320000CC0000C00000C00003FC0003FC000009B
:10533000000000000000000000000000000000006D
:105340000000000000000000000000000003EC006E
:105350000FFC001C1C00180C00300C00300000304A
:10536000000030FE0030FE00300C00380C001C1C29
:10537000000FFC0003F0000000000000000000002F
:10538000000000000000000000000000000000001D
:1053900000000000007E7E007E7E001818001818B5
:1053A000001818001818001FF8001FF8001818003F
:1053B0001818001818001818007E7E007E7E000065
:1053C00000000000000000000000000000000000DD
:1053D000000000000000000000000000001FF800B6
:1053E0001FF80001800001800001800001800001A1
:1053F00080000180000180000180000180000180A8
:10540000001FF8001FF8000000000000000000006E
:10541000000000000000000000000000000000008C
:10542000000000000007FE0007FE00003000003012
:10543000000030000030000030003030003030001C
:105440003030003030003060003FE0000F8000005E
:10545000000000000000000000000000000000004C
:10546000000000000000000000000000007F3E007F
:105470007F3E0018300018600018C0001980001B23
:1054800080001FC0001CE0001870001830001838A1
:10549000007F1F007F1F00000000000000000000D0
:1054A00000000000000000000000000000000000FC
:1054B00000000000007F80007F80000C00000C00D6
:1054C000000C00000C00000C00000C00000C0C0094
:1054D0000C0C000C0C000C0C007FFC007FFC00008E
:1054E00000000000000000000000000000000000BC
:1054F00000000000000000000000000000F00F00AD
:10550000F81F00381C003C3C003C3C00366C003668
:105510006C0033CC0033CC00318C00300C00300CEC
:1055200000FE7F00FE7F0000000000000000000081
:10553000000000000000000000000000000000006B
:10554000000000000078FE0078FE001C18001E1805
:10555000001F18001B18001B980019D80018D8004D
:1055600018F8001878001838007F18007F1800001D
:10557000000000000000000000000000000000002B
:105580000000000000000000000000000003C00058
:105590000FF0001C3800181800381C00300C0030C8
:1055A0000C00300C00300C00381C001818001C389F
:1055B000000FF00003C00000000000000000000029
:1055C00000000000000000000000000000000000DB
:1055D00000000000003FF0003FF8000C1C000C0C25
:1055E000000C0C000C0C000C18000FF8000FE00071
:1055F0000C00000C00000C00003FC0003FC0000089
:10560000000000000000000000000000000000009A
:105610000000000000000000000000000003C000C7
:105620000FF0001C3800181800381C00300C003037
:105630000C00300C00300C00381C001818001C380E
:10564000000FF00007C00007CC000FFC000C380072
:10565000000000000000000000000000000000004A
:1056600000000000007FE0007FF0001838001818EC
:10567000001818001838001FF0001FC00018E000C4
:105680001870001830001838007F1E007F0E0000D0
:10569000000000000000000000000000000000000A
:1056A0000000000000000000000000000007D8001B
:1056B0000FF8001C38001818001818001E00000F02
:1056C000C00003F0000078001818001818001C38FB
:1056D000001FF0001BE000000000000000000000C0
:1056E00000000000000000000000000000000000BA
:1056F00000000000003FFC003FFC00318C00318CBA
:1057000000318C00318C000180000180000180009C
:105710000180000180000180000FF0000FF0000008
:105720000000000000000000000000000000000079
:10573000000000000000000000000000007E7E006D
:105740007E7E001818001818001818001818001885
:1057500018001818001818001818001818000C3035
:10576000000FF00003C00000000000000000000077
:105770000000000000000000000000000000000029
:1057800000000000007F7F007F7F00180C000C18D5
:10579000000C18000C1800063000063000036000F2
:1057A00003600003600001C00001C0000080000031
:1057B00000000000000000000000000000000000E9
:1057C00000000000000000000000000000FE3F801C
:1057D000FE3F8030060030060030860019CC0019EC
:1057E000CC001B6C001B6C001E7C000E38000E38B9
:1057F000000C18000C180000000000000000000061
:105800000000000000000000000000000000000098
:1058100000000000007E7E007E7E001818000C3024
:105820000006600003C00001800001800003C0008A
:105830000660000C30001818007E7E007E7E00009E
:105840000000000000000000000000000000000058
:10585000000000000000000000000000007C7E004E
:105860007C7E001818000C30000660000660000303
:10587000C0000180000180000180000180000180E3
:10588000000FF0000FF0000000000000000000001A
:105890000000000000000000000000000000000008
:1058A00000000000001FF8001FF800181800183052
:1058B0000018600018C000018000030000061800F6
:1058C0000C18001818003018003FF8003FF80000CE
:1058D00000000000000000000000000000000000C8
:1058E0000000000000000000000001F00001F000D6
:1058F0000180000180000180000180000180000122
:105900008000018000018000018000018000018092
:105910000001800001800001800001F00001F00022
:105920000000000000000000000000001800001847
:1059300000001C00000C00000E0000060000060025
:105940000003000003000001800001800000C0008F
:1059500000C0000060000060000070000030000027
:1059600038000018000018000000000000000000CF
:10597000000000000000000000000F80000F800009
:105980000180000180000180000180000180000191
:105990008000018000018000018000018000018002
:1059A000000180000180000180000F80000F800056
:1059B00000000000000000000000000000000000E7
:1059C000800001C00003E0000770000630000C18E2
:1059D00000180C001004000000000000000000008F
:1059E00000000000000000000000000000000000B7
:1059F00000000000000000000000000000000000A7
:105A00000000000000000000000000000000000096
:105A10000000000000000000000000000000000086
:105A20000000000000000000000000000000000076
:105A30000000000000000000000000000000000066
:105A4000000000000000FFFF00FFFF000000000357
:105A5000000003800000E000006000000000000083
:105A60000000000000000000000000000000000036
:105A70000000000000000000000000000000000026
:105A80000000000000000000000000000000000016
:105A90000000000000000000000000000000000006
:105AA0000000000000000FC0001FE00000300000F8
:105AB000300007F0001FF000383000303000307048
:105AC000001FFC000FBC00000000000000000000F0
:105AD00000000000000000000000000000000000C6
