:020000041004E6
:10000000B88B0030ED010410F5010410F701041065
:1000100000000000000000000000000000000000E0
:1000200000000000000000000000000007020410B3
:100030000000000000000000090204107D0F041001
:100040000D0204100D0204100D0204100D02041024
:100050000D0204100D0204100D0204100D02041014
:100060000D0204100D0204100D0204100D02041004
:100070000D0204100D0204100D0204100D020410F4
:100080000D0204100D0204100D0204100D020410E4
:100090000D0204100D0204100D0204100D020410D4
:1000A0000D0204100D0204100D0204100D020410C4
:1000B0000D0204100D0204100D0204100D020410B4
:1000C0000D0204100D0204100D0204100D020410A4
:1000D0000D0204100D0204100D0204100D02041094
:1000E0000D0204100D0204100D0204100D02041084
:1000F0000D0204100D0204100D0204100D02041074
:100100000D0204100D0204100D0204100D02041063
:100110000D0204100D0204100D0204100D02041053
:100120000D0204100D0204100D0204100D02041043
:100130000D0204100D0204100D0204100D02041033
:100140000D0204100D0204100D0204100D02041023
:100150000D0204100D0204100D0204100D02041013
:100160000D0204100D0204100D0204100D02041003
:100170000D0204100D0204100D0204100D020410F3
:100180000D0204100D0204100D0204100D020410E3
:100190000D0204100D0204100D0204100D020410D3
:1001A0000D0204100D0204100D0204100D020410C3
:1001B0000D0204100D0204100D0204100D020410B3
:1001C0000D0204100D0204100D020410BD0E0410E7
:1001D0000D0204100D0204100348854600F026FAB3
:1001E0000048004705140410B88B00300C488047C5
:1001F0000C480047FEE77046EFF30881EFF30982F1
:10020000094B98470047FEE7FEE7FEE7FEE70000E0
:10021000ABBE064B7446984720477046F047000037
:10022000810F0410D9010410ED080410C10E041050
:10023000421C0178401C0029FBD1801A7047F0B5A0
:100240001FB40646002082B005464024019100906C
:100250001BE0019922460F46304600F028FA049A26
:10026000059B801A994110D310461946224600F08A
:100270000EFA361A8F410197224601200021009F75
:1002800000F005FA38184D4100902046641E002801
:10029000DFDC019B00982946324607B0F0BD000024
:1002A000F0B507460846584087B0C00F0490480094
:1002B0000E46590040084908BC1A884105D2384604
:1002C00031461E4617460B4602465800400810436A
:1002D0004CD0300D039040055900400D490D05905C
:1002E000401A0290402872DA18030121000B090518
:1002F0000843019004980092002805D001995242C9
:100300000020884100920190029840210A1A019928
:10031000009800F0BCF905460C466B4607CB00F090
:10032000D7F9C0197141039A0E0D0023D717564013
:100330001A467A40164344D0049A002A2DD0029AD5
:10034000012A039A15DC1205C01A914101263605CF
:10035000001C7141D20F059ED207009301920296B4
:100360002A46234600F0D4F907B0F0BD384631469E
:10037000FAE71605224A0F46B218C01AB741012102
:100380000905001C4F4100187F411146181879419A
:10039000E20F10436D19644113E0E2076D08154345
:1003A0006408C2071443039A01261205C01A91413A
:1003B0003605001C7141CE07400830434908C0187B
:1003C00051412A46234600F096F9CDE7FFE704980D
:1003D00001224000C117121A00238B4104983146B4
:1003E000C417381AA141EEE730B40124E407634092
:1003F00030BC55E730B40124E407614030BC4FE71E
:100400000000E0FFF0B51FB488B00B9909980024F4
:1004100048400999C00F490049080991C0070B9944
:100420000090490049080B9109990898A64608438D
:100430001CD00B990A98084318D009980124400051
:10044000420D4800410D099824050003000B20438C
:1004500009900B980003000B20430B9050181C4987
:100460004018002201901446104605E00020014685
:100470000DB0F0BD032801DA034600E003239C46DB
:10048000C11A0AAE0AE05F0008ADED5B4F00F75BF2
:100490007D430027AA187C41491C5B1E6145F2DDA3
:1004A000410004AB5A522104120C0A43240C401C94
:1004B0000828DFDB019802900099704601910090B6
:1004C000059B049A0799069800F022F9D0E70000EE
:1004D0000DFCFFFFF0B50C465C4085B0E40FE4076F
:1004E00003944C00002664085900944649080246CB
:1004F0000296224321D062460A431ED06200570D65
:100500004A000E032303550D012402462C492405FD
:10051000781B1B0B360B4018234326436146009083
:100520001C46501AB44103D30098401C009002E0CE
:10053000921800985B41002803DA0020014605B0BC
:10054000F0BD0020012109050746864611E06446FA
:100550001D46141BB54106D36546521BB341744674
:1005600007430C43A646CD07400849082843921884
:100570005B4105460D43EAD11046184313D060464F
:10058000194650407140084306D06046101AB341E6
:1005900006D20122002306E000220123DB0702E04D
:1005A0000122D2435310009874460105381C614162
:1005B000029C039D0019694100F09DF8BFE700000F
:1005C000FD0300004A0009030123090B1B05194321
:1005D0000A4B10B5520D9A4202DA0020014610BDB6
:1005E000064B34339A4203DC9A1A00F060F810BDCF
:1005F000034BD21800F04BF810BD0000FF030000C1
:10060000CDFBFFFF10B5002904DB0124E4074042C5
:100610008C412146002B04DB1C460123DB075242A0
:10062000A341994200D1904210BD0000064C012523
:10063000064E05E0E36807CC2B430C3C984710348A
:10064000B442F7D3FFF7CCFD2C2404104C24041043
:1006500070B50446002903D000202022012310E0B9
:10066000002801D00020C043C046C0460DE025460A
:10067000D5408D4205D30D469540641B1D469540DF
:1006800040191546521E002DF1DC214670BD10B5F3
:10069000202A04DB0146203A9140002010BD914001
:1006A00020239C1A0346E3401943904010BD10B527
:1006B000202A04DB0846203AD040002110BD0B461A
:1006C000D340D0402024A21A91400843194610BDBF
:1006D00010B5202A06DBCB170846203A1041C11777
:1006E0000B4306E00B461341D0402024A21A914050
:1006F0000843194610BD10B5002B08DA0024401C31
:10070000614192185B411A4301D14008400010BD7D
:10071000F0B51FB482B005460C0003D0084600F0C7
:10072000EBFE02E000F0E8FE203002460090214699
:100730002846FFF7ACFF049B059A04460F46184372
:100740001143084314D0184610431BD00098402191
:100750000A1A18460599FFF7AAFF05460E46009AA1
:1007600005990498FFF793FF084305D0012004E0A2
:100770002046394607B0F0BD0020C11705430E439F
:100780002C43374300990E986305401A7905E40A13
:1007900000220C43FD0A0A3002D500200146E9E799
:1007A0000105101969410C9C0D9D00196941FFF765
:1007B000A2FFDFE770B58C180578401C6B075B0F54
:1007C00001D10378401C2A1106D10278401C03E0B5
:1007D00006780E70401C491C5B1EF9D12B0705D40E
:1007E0000023521E0DD40B70491CFAE70378401CFD
:1007F000CB1A921C03E01D780D70491C5B1C521E25
:10080000F9D5A142D8D3002070BD000082B001907C
:10081000012000040090FFE701980099884205D963
:10082000FFE700980199081A019004E001980090F0
:1008300000200190FFE700982849096841432848B3
:100840000160284800210160274805210160FFE779
:1008500025480068C003002801D4FFE7F8E72248D4
:1008600000210160FFE701980028D5D1FFE702B021
:100870007047C04682B00190012000040090FFE75D
:1008800001980099884205D9FFE700980199081A54
:10089000019004E00198009000200190FFE700988B
:1008A0000E49096841430E4801600E48002101606D
:1008B0000D4805210160FFE70B480068C0030028D0
:1008C00001D4FFE7F8E7084800210160FFE701983D
:1008D0000028D5D1FFE702B07047C0460080003045
:1008E00014E000E018E000E010E000E010B5CAB04D
:1008F000499048914792499840210840800940908A
:10090000409800280DD0FFE749A80078400700284C
:1009100003D5FFE74798469002E048984690FFE7E6
:10092000FFE7F94800F0D8FDF8493690084600F096
:10093000D3FD4699896943914399098844910021DF
:100940003A914099002912D1FFE743A8C078C00628
:1009500000280CD4FFE74399ED4800F0BDFDED49B8
:100960003590084600F0B8FD01213A915CE14498C9
:10097000E949884206D1FFE7E84800F0ADFD0221D1
:100980003A9150E14498000B052858D1FFE7032025
:100990003A904498C005400F3F9044988006400F1D
:1009A0003E904498072108403D9046983E99890022
:1009B00041583F9A920080580818429046983D99B5
:1009C0008900405841903E983D9988421BD1FFE7ED
:1009D000439944980205D24BD24C002A349133906B
:1009E0003294319301D43298319031983D99429AA2
:1009F00001920091CC49309008463499339A309B4B
:100A000000F06AFD1AE0439944980205C44BC54CB6
:100A1000002A2F912E902D942C9301D42D982C9058
:100A20002C984199429A01920091C0492B90084616
:100A30002F992E9A2B9B00F04FFDFFE7F2E0449890
:100A4000400B032856D1FFE703203A904498400515
:100A5000C00E3C9044988006400F3E904498072179
:100A600008403D9046983E99890040583C9940186E
:100A7000429046983D998900405841903D983E9952
:100A800088421BD1FFE7439944980205A44BA54C2B
:100A9000002A2A9129902894279301D428982790F6
:100AA00027983D99429A01920091FB492690084669
:100AB0002A99299A269B00F00FFD1AE04399449841
:100AC0000205F24BF24C002A2591249023942293A4
:100AD00001D42398229022984199429A0192009140
:100AE000EC49219008462599249A219B00F0F4FCBA
:100AF000FFE796E04498000B082856D1FFE7032053
:100B00003A9044984005C00E3C9044988006400FAF
:100B10003E904498072108403D9046983E998900B0
:100B200040583C994018429046983D998900405859
:100B300041903D983E9988421BD1FFE743994498E4
:100B40000205D24BD24C002A20911F901E941D9377
:100B500001D41E981D901D983D99429A01920091D2
:100B6000CD491C90084620991F9A1C9B00F0B4FCAC
:100B70001AE0439944980205C44BC54C002A1B91C6
:100B80001A901994189301D41998189018984199AB
:100B9000429A01920091BF49179008461B991A9AF0
:100BA000179B00F099FCFFE73AE04498000B0928F6
:100BB0002ED1FFE703203A9044A800783B90449858
:100BC0004005400F3D90469880693B9940184290FF
:100BD00046983D99890040584190439944980205B0
:100BE000AA4BAB4C002A169115901494139301D480
:100BF0001498139013984199429A01920091A54933
:100C0000129008461699159A129B00F065FC06E0B2
:100C100004203A9044999C4800F05EFCFFE7FFE70F
:100C2000FFE7FFE7FFE7FFE73A98032800D017E167
:100C30004098002800D0B3E000204590FFE7459899
:100C4000452800D9ABE0429845990C224A43934984
:100C50008918496888423CD3FFE7429845990C229D
:100C60004A438E4951180969884232D2FFE74598B4
:100C70000C210A46424389488218127A39AB1A700D
:100C80001A781F24224038AC22701A7852091A7040
:100C90001A789200824BD2582378DA4001231A4006
:100CA0003792379A7F4B804C002A119110900F9405
:100CB0000E9301D10F980E900E984599119A4A43C0
:100CC00010998A587A4B0D9018460D9900F004FC43
:100CD00065E0429845990C224A4370498918496851
:100CE000012212078918884254D3FFE74298459998
:100CF0000C224A43694951180969012212078918CF
:100D0000884247D214E0C046A31E0410911F04106D
:100D100067200410651F0410ABBE0000FE1F041006
:100D2000DF210410E3210410BB1F0410DC1F04109A
:100D300045980C210A46424358488218127A39AB2A
:100D40001A701A781F24224038AC22701A7852097F
:100D50001A701A789200524BD2582378DA40012345
:100D60001A403792379A4F4B4F4C002A0C910B90F8
:100D70000A94099301D10A980990099845990C9A07
:100D80004A430B998A58494B08901846089900F035
:100D9000A3FB04E0FFE74598401C45904FE75EE069
:100DA00042984449884259D3FFE700204590FFE725
:100DB0004598452851D8FFE7429845990C224A4367
:100DC00036498918496801221207891888423FD399
:100DD000FFE7429845990C224A4330495118096966
:100DE000012212078918884232D2FFE745980C2168
:100DF0000A46424329488218127A39AB1A701A7887
:100E00001F24224038AC22701A7852091A701A78BE
:100E10009200234BD2582378DA4001231A403792AC
:100E2000379A204B204C002A079106900594049392
:100E300001D10598049004984599079A4A43069968
:100E40008A581D4B03901846039900F045FB04E0B7
:100E5000FFE74598401C4590AAE7FFE7FFE7FFE75B
:100E600000F02CF8074800F037FBFFE746980068D1
:100E700001210843002801D0FFE7F7E749984AB06D
:100E800010BDC046A31E0410801E0410DF210410F4
:100E9000E3210410DC1F0410BB1F04100880003085
:100EA00000F0024004220410FD210410161F04105B
:100EB000E81E04100100001024200410FFE7FEE7E4
:100EC00083B0029001910092002003B0704780B57A
:100ED00082B00190019800F003F802B080BD0000DC
:100EE00081B00090FFE70E4800680002002801D59D
:100EF000FFE7F8E700980B490860684600780A2881
:100F00000CD1FFE7FFE7064800680002002801D582
:100F1000FFE7F8E703480D210160FFE701B07047E4
:100F2000180007500000075080B584B00290029866
:100F3000401E000E002803D0FFE70120039013E0BD
:100F40000298401E0A4908600020C1430322019014
:100F50000846114600F010FA06480199016006485B
:100F6000072202600391FFE7039804B080BDC046EA
:100F700014E000E018E000E010E000E0704700003E
:100F800001480249086070470000041008ED00E0C5
:100F900080B584B0039002A80021017001A80170FF
:100FA0000091CC480160FFE70098002828D1FFE7B6
:100FB000FFE7EE4800684004002820D4FFE7EC4833
:100FC000006802A908700398002806D0FFE702A86D
:100FD0000178E84800F080FAFFE701A800784F2880
:100FE00008D1FFE702A800784B2803D1FFE70120D2
:100FF000009003E0029801A90870FFE7D9E7D3E762
:10100000B4480121016004B080BDC04670B5A0B0F5
:10101000AB4800F061FAAB491A90084600F05CFA60
:10102000A94945F200020A6005218905A74A116015
:10103000A74900220A60A74B1A60A74C012525602A
:10104000A64E3560A64E1990304618911792169309
:1010500015941495FFF70EFC149818990860169AC9
:101060001060179B159C23601E931D931C931B936C
:10107000FFE71B98002800D01FE19648002101607F
:10108000FFE7BA4800684004002800D58EE0002041
:101090001C90B74800681FA908701D9800280DD142
:1010A000FFE71FA80078722808D1FFE71C980028E6
:1010B00004D1FFE701201D901C90FFE71D98012837
:1010C0000ED1FFE71FA80078652809D1FFE71C981B
:1010D000002805D1FFE702201D9001201C900BE0A5
:1010E0001D98012807D1FFE71C98002803D1FFE7CE
:1010F00000201D90FFE7FFE71D9802280ED1FFE7B3
:101100001FA80078612809D1FFE71C98002805D1A5
:10111000FFE703201D9001201C900BE01D98022882
:1011200007D1FFE71C98002803D1FFE700201D909E
:10113000FFE7FFE71D9803280ED1FFE71FA80078FF
:10114000642809D1FFE71C98002805D1FFE7042097
:101150001D9001201C900BE01D98032807D1FFE78C
:101160001C98002803D1FFE700201D90FFE7FFE750
:101170001D9804280DD1FFE71FA80078792808D111
:10118000FFE71C98002804D1FFE701201E901C9067
:101190000BE01D98042807D1FFE71C98002803D115
:1011A000FFE700201D90FFE7FFE76AE71E98002891
:1011B0007FD0FFE74B481390FFF73AF800211290D9
:1011C0000846139A11911146129A00F0A3F811984B
:1011D000FFF7DEFE44481090FFF72AF811990F90B0
:1011E000084610990F9A00F095F81198FFF7D0FE75
:1011F0003E4800F071F93E490E9008460D91FFF708
:1012000017F811990C9008460D990C9A00F082F885
:101210001198FFF7BDFE374800F05EF936490B9094
:1012200008460A91FFF704F81199099008460A99AF
:10123000099A00F06FF81198FFF7AAFE2F4800F006
:101240004BF92F49089008460791FEF7F1FF1199D5
:10125000069008460799069A00F05CF81198FFF787
:1012600097FE284800F038F9274905900846049170
:10127000FEF7DEFF1199039008460499039A00F0E7
:1012800049F81198FFF784FE204800F025F90D4930
:101290000290084600F020F91D490190084600F030
:1012A0001BF97F490090084600F016F901211B91B7
:1012B000FFE7084801210160DBE620B070BDC046B1
:1012C00032230410D0220410C0400050804000504F
:1012D000AC480050B0480050DC480050D84800509E
:1012E00040420F00F01D0410721E04100123041070
:1012F000481E0410942304102B1E0410C523041050
:10130000F51D0410F6230410031E0410A12204107E
:101310006323041080B584B00390029101920020F1
:101320000090FFE70098019988421DDAFFE7FFE788
:101330000E4800680002002801D5FFE7F8E7029890
:101340000099405C0A4908600398002807D0FFE72D
:1013500002980099415C074800F0BEF8FFE7FFE7FC
:101360000098401C0090DDE704B080BD18300750A5
:10137000003007502824041070B582B0019000910D
:101380000198002814D4FFE701980321C9430840BD
:10139000164A8058019B9C07E40EFF25A540A843F0
:1013A000009DAD01EDB2A54028430B40985018E0D8
:1013B00001980F21084008380322D24310400A4BFD
:1013C000C058019CA507ED0EFF26AE40B043009E1D
:1013D000B601F6B2AE4030430C40083C1440E05039
:1013E000FFE702B070BDC0461CED00E000E400E085
:1013F00080B582B0019000910198FFF768FD0198D7
:1014000002B080BD80B58CB025480B9000F064F828
:1014100024490A90084600F05FF80B9909900846A5
:1014200000F05AF8089000F051F81F490860086869
:101430006421B0FBF1F0FFF777FD1C4907900846E7
:1014400000F04AF80B990690084600F045F8184954
:101450000590084600F040F80B990490084600F00B
:101460003BF80390FFF7D2FD124845F200010160FE
:101470000520800510490860104801210160104ACC
:10148000029010460191FFF7C1F90E4801990160E1
:101490000D48FFF7BBF90020029908600CB080BD31
:1014A0000E2204103F220410048000302624041071
:1014B00070220410C040005080400050DC480050B2
:1014C000C0C62D00D848005040420F0003B4014868
:1014D000019001BD691E00000FB410B503A9044BB3
:1014E000044A029800F0E8F810BC08BC04B01847A1
:1014F000F1130410608300302021020C01D0102170
:101500001046020A01D010460839020901D01046DF
:10151000091F820801D01046891E420801D0881E8A
:101520007047081A704702E008C8121F08C1002A55
:10153000FAD170477047002001E001C1121F002A54
:10154000FBD17047F0B51FB486B00998089A030D17
:101550000021024314D05148514A18185043051431
:101560001198012810981AD0281A401C00264D4FB7
:101570004D49009601910490002812DA444211E08E
:101580001198012449A3012801D11098C14306985C
:10159000119A84600360C26041600BB0F0BD4042AC
:1015A000E4E70446210500203F4A001C5141039115
:1015B000029012E0E00707D032463B4601990098BE
:1015C000FEF720FF0191009032463B461046194637
:1015D000FEF718FF06460F466410002CEAD1049867
:1015E000039B0028029A0999089806DAFEF70AFF79
:1015F000019B009AFEF706FF05E0FEF76BFF019BDB
:10160000009AFEF767FF04460E460022284BFEF7BD
:10161000F9FF03D80020C043014607E00022254B14
:1016200020463146FEF73CFEFEF7CCFF102409E0D1
:10163000002C0ADB0A220023FEF701FE079B303252
:101640001A55641E02460A43F2D11122641C079BFC
:10165000121B1C19119B012B03D0012308430ED12F
:101660000AE0084304D0112010900020119077E781
:101670001098151A6D1E0BE01098824202DD0023AF
:101680006D1C03E0824201DA00236D1E002BEED0B8
:10169000069811998260C16030C07EE701FCFFFFAF
:1016A000104D0000000014400000F03F300000002A
:1016B0000000F0430000E03FFFB597B0064600256C
:1016C00018E2252877D100242746FD49049400E03C
:1016D0000443761C32780120203A90400842F7D12A
:1016E00030782A280ED00222307801463039092974
:1016F00016D804990A235943303940181443761CEC
:101700000490F1E7189802C804911890002904DAAF
:101710000120400304434842049002200443761C05
:1017200030782E2814D1042004437078761C2A289F
:1017300009D11898761C80C8189009E00A214F43F7
:10174000303FC719761C3078014630390929F5D960
:1017500030786C2810D006DC4C281AD068280ED0BF
:101760006A2817D104E0742813D07A2812D110E027
:101770000120400504430CE00121090501E003219B
:1017800009050C437178814203D10120000524181A
:10179000761C761C3078119066280BD013DC582804
:1017A0007DD009DC00287BD04528F6D04628F4D02F
:1017B00047281AD1A5E118E0632835D0642870D0F5
:1017C000652812D19DE170286CD008DC6728F1D023
:1017D00069287BD06E280DD06F2806D1BAE0732817
:1017E0002ED0752871D0782859D01A9A1999904717
:1017F0006D1C7EE16002400F022809D003280DD045
:101800000428189801680DD00D60001D189070E133
:101810001898EA1701680D604A60F6E718980168A1
:101820000D80F2E70D70F0E718986A4601781172A2
:10183000001D18900020507202A80090012005E0C1
:10184000189802C8189000200091C04361070DD578
:10185000002101E00199491C0191B94212DA81424B
:10186000F8DB009A515C0029F4D10BE0002101E083
:101870000199491C01918142FADB019A0099895C26
:101880000029F5D1019904981A9B471A2146384638
:10189000199A00F097FA0199401945180BE04FE0AA
:1018A0002CE113E04EE0009800990078491C00916B
:1018B0001A9A199990470198401E0190401CF2D144
:1018C000214638461A9B199A10E137E00A20002178
:1018D000009001916002410F022907D0189A01CAB5
:1018E0001892C2179446032908D00AE01898C01D20
:1018F000C108C90005C91891944607E000B2C21793
:101900009446042902D140B2C1178C460022614698
:10191000944506DA0A460021404291418C462D2129
:1019200002E0210504D52B216A461173012103E051
:10193000E10701D02021F7E7029155E00A200AE0F3
:10194000102008E0102000900021042004430191A1
:10195000082703E008200021019100906002410F58
:10196000022907D0189A01CA189200229446032926
:1019700008D008E01898C01DC108C90005C9189111
:10198000944603E080B2042900D1C0B20021029144
:10199000210729D51199702906D0009A1021019BA1
:1019A0004A401A4305D00EE040216A4611730121D6
:1019B00008E06146014306D030216A46117311994F
:1019C000517302210291009A0821019B4A401A4357
:1019D0000AD16146014301D1610705D530216A462C
:1019E000117301217F1E02911199582904D035A14C
:1019F0000E910DA90D910DE037A1F9E76146019B0C
:101A0000009AFEF71CFC0E9B8C469B5C0D9A521EA6
:101A10000D92137061460143F0D10D9805A9081A83
:101A200020300190600703D501200004844300E0CA
:101A300001270198874201DD381A00E00020019952
:101A400000904118029809180498401A0490E00385
:101A500006D421461A9B199A049800F0B3F9451947
:101A6000002706E003A81A9AC05D199990476D1CDB
:101A70007F1C02988742F5DBE0030CD521461A9BB8
:101A8000199A049800F09EF9451904E01A9A30203A
:101A9000199990476D1C0099481E00900029F5DCAB
:101AA00008E00D980D990078491C0D911A9A199922
:101AB00090476D1C0199481E01900029F1DC63E1FB
:101AC0000928010030313233343536373839616214
:101AD00063646566000000003031323334353637D8
:101AE00038394142434445460000000000F05AF9AD
:101AF0004519761C3078002800D0E2E528461BB056
:101B0000F0BD600700D406271898C01DC108C900A1
:101B100048680A680831C30FDB071891190001D023
:101B20009CA108E0210501D59BA104E0E10701D0BB
:101B30009AA100E09AA1430011985B0810916528D2
:101B40000CD006DC452809D046281DD0472841D1B5
:101B500041E0662818D067283CD13CE00021112FD5
:101B600001DB112000E0781C0191009008A911A868
:101B7000FFF7E8FC139905910021119A15927F1C3B
:101B800012980197009150E00120C00703900120B6
:101B9000019008A9009711A8FFF7D4FC139A149993
:101BA00005920022119B009212981593059A0192BA
:101BB000002901D0104602E0791C40180190381A23
:101BC00001D5019804E04042401E0090781C01902D
:101BD000C01B029043E0012F00DA01270021112FE2
:101BE00001DD112000E038460191009008A911A8FC
:101BF000FFF7A8FC13990591119A002112981592EC
:101C00000091019721070CD40599B94201DB019994
:101C100000E00191012904DD159A491E515C30292B
:101C200006D0B84201DA011D05DA0121029115E062
:101C30000199491EEDE7002805DC00994118009143
:101C40000199091A03E0019A411C914200DD0191BA
:101C50000099401A401C02900120C0070390200701
:101C600006D402990198814202DB0020C043029011
:101C700000206946C87707AF012103980337C907D9
:101C8000884224D0022011902B2012900398002823
:101C90000CDA404203902D20129007E00A210398AD
:101CA000FEF7D6FC30317F1E039039701199481E23
:101CB00011900029F2DC03980028EFD1791E1298C8
:101CC00008703078202108404530BF1E387006A8C3
:101CD000C01BC01D039010980078002800D0012080
:101CE000019941180298C017091803980918049817
:101CF000401A401E0490E00306D421461A9B199A0C
:101D0000049800F05FF8451910980078002803D077
:101D10001A9A199990476D1CE00324D521461A9B05
:101D2000199A049800F04EF845191CE00098002814
:101D300007DB00990598884203DD1598405C1999E6
:101D400001E0199930201A9A904700986D1C401CA8
:101D500000900298401E0290002804D11A9A2E206A
:101D6000199990476D1C0199481E01900029DDDCEE
:101D700005E038781A9A7F1C199990476D1C0399D1
:101D8000481E03900029F4DC21461A9B199A0498F6
:101D9000ACE600002D0000002B0000002000000039
:101DA00000000000F8B5044600251E4617468804CA
:101DB00004D405E039462020B0476D1C641EF9D5D7
:101DC0002846F8BDFFB50446002581B01E46C8036D
:101DD00001D5302700E02027880404D505E03846E7
:101DE0000399B0476D1C641EF9D5284605B0F0BDB7
:101DF00041540D0A0041542B4349504D55583D3034
:101E00000D0A0041542B43495053544152543D2232
:101E1000544350222C223139322E3136382E33356C
:101E20002E313238222C38300D0A0041542B4349D0
:101E3000505354413D223139322E3136382E33350C
:101E40002E313237220D0A0041542B43574A41505C
:101E50003D22534B5F5769466947494741374542E1
:101E600031222C2231363033303034353030220DAF
:101E70000A0041542B43574D4F44453D310D0A0054
:101E80002020556E657870656374656420696E7393
:101E90007472756374696F6E3A20307825303478C7
:101EA000200A0021212D2D2D2D2D2D2D2D2D2D2DD7
:101EB0002D2D2D2D2D2D2D2D2D2D2D2D2D2D2D2D52
:101EC0002D2D2D2D2D2D2D2D2D2D2D2D2D2D2D2D42
:101ED0002D2D2D2D2D2D2D2D2D2D2D2D2D2D2D2D32
:101EE0002D2D2D2D21210A002020496C6C65676164
:101EF0006C2061636365737320746F2025732025E4
:101F00007320696E204E6F6E736563757265206312
:101F10006F64652E0A002020496C6C6567616C2037
:101F200061636365737320746F20257320257320AC
:101F3000696E204E6F6E73656375726520636F64A2
:101F4000652E0A4974206D6179206265207365747D
:101F50002061732073656375726520495020686540
:101F600072652E0A00202054727920746F206368F5
:101F700065636B204E534320726567696F6E206FF7
:101F800072205341552073657474696E67732E0A0D
:101F90000020202020202020202020202020202061
:101FA00020202020202020203C3C3C2048617264DE
:101FB0004661756C74203E3E3E0A0020205B3078FE
:101FC000253038785D20307825303478202573200E
:101FD000522564205B307825785D0A0020205B3034
:101FE00078253038785D2030782530347820257396
:101FF0002030782578205B307825785D0A00202015
:102000004578656375746520424B50542077697438
:10201000686F75742049434520636F6E6E65637405
:1020200065640A002020496C6C6567616C20746FE0
:1020300020757365204E6F6E7365637572652061E0
:1020400064647265737320746F2061636365737376
:1020500020257320257320696E2053656375726592
:1020600020636F64650A0020204E6F6E2D736563D8
:10207000757265204350552074727920746F206604
:10208000657463682073656375726520636F64654A
:1020900020696E20307825780A0050444D41300088
:1020A00049324330004441433000534330005344ED
:1020B0004830005553434930005145493000515391
:1020C000504930004250574D30004550574D300078
:1020D00043414E30004543415030004932533000B7
:1020E00055415254300041434D50303100544D520F
:1020F00030310050444D41310049324331004441B8
:102100004331005343310055534349310051454950
:10211000310053504931004250574D31004550571E
:102120004D31004543415031005541525431004931
:10213000324332005343320053504932005541522A
:10214000543200544D5232330053504933005541FC
:1021500052543300554152543400554152543500C5
:102160004750494F41005041004750494F420050AD
:1021700042004541444300464D43004750494F43C8
:1021800000504300435243005254430055534244CD
:10219000004750494F44005044004750494F4500C4
:1021A0005045004750494F460050460054524E4754
:1021B000004750494F47005047004F544700555380
:1021C0004248004750494F480050480045424900A6
:1021D000434C4B004750494F5F444243544C004CE2
:1021E000445200535452005359530057574454001B
:1021F000494E5400435250540053435500536563B5
:10220000757265004E6F6E736563757265002B2D78
:102210002D2D2D2D2D2D2D2D2D2D2D2D2D2D2D2DEE
:102220002D2D2D2D2D2D2D2D2D2D2D2D2D2D2D2DDE
:102230002D2D2D2D2D2D2D2D2D2D2D2D2B0A007CD1
:10224000202020202020202020202020204E6F6EC3
:102250002D5365637572652069732072756E6E69A2
:102260006E67202E2E2E202020202020207C0A0089
:102270007C202020202020202020202020202045DD
:102280005350383236362057694669204D6F647591
:102290006C652044656D6F202020202020207C0A62
:1022A000007C20202020202020536572766572203B
:1022B00054435020656E61626C6564206F6E2038F7
:1022C0003020706F7274202020092020097C0A00C1
:1022D0007C202020202020202020202020202020A2
:1022E00020202020202020202020202020202020EE
:1022F00020202020202020202020202020207C0A98
:10230000007C202020202020202043757272656EE2
:1023100074206D6F6465203A205B315D20537461D9
:1023200074696F6E20202020202020202020207C17
:102330000A007C2020202020202020202020205740
:10234000694669204D6F64756C65204C6F616469E6
:102350006E6720202E2E2E202020202020202020BE
:102360007C0A007C202020202020202057694669FC
:10237000204D6F64756C65204553503832363620D9
:10238000697320526561647920202020202020205C
:10239000207C0A007C202020202020202057694615
:1023A000692053534944203A202022534B5F5769F8
:1023B00046694749474137454231222020202020A5
:1023C00020207C0A007C2020202020202020536513
:1023D000742053746174696F6E204950203A203123
:1023E00039322E3136382E33352E313237202020F7
:1023F0002020207C0A007C20202009576946692083
:1024000053696E676C652053657276657220436F01
:102410006E6E656374696F6E7320456E61626C6584
:1024200064202020207C0A00256300005024041032
:102430000080003060030000B40704104826041038
:1024400060830030580800003615041000000000BA
:10245000423030086CDC02E721041042402AD00CE4
:102460004A020C2AF00C4A030C2A600C124033403A
:10247000E01A690C1A400C32E11A7B0C1A800C32FB
:10248000E21A910C1AC00C32E32A9A3012413340FE
:10249000E42AA330190C32E52AB130190C32E62AAD
:1024A000C330190C32E72AD4244A446C2A663C4AC9
:1024B000486C2A6F18590C2A813C590C2A973C59B0
:1024C0000C2AA0304A490C2AA930590C2AB7305995
:1024D0000C2AC930590C1B9A20304A806C3AF30CF4
:1024E000340140182ABE4812903340092A770C4A1A
:1024F000C0242AAE2412D033400D2ACC18111B015F
:102500004005112AF90C3BF002242A840C351003F3
:1025100040312AF40C35200340323AEC303A04249E
:102520002AEB0C4A010C3A8830340440412A720CE0
:1025300035300440432AE66C35500440452AA50C4A
:1025400035700440471AFE0C5A400C3ADBB4340490
:1025500040482ABA3C35D004404D2AED18113A05BE
:10256000603A4360340540513ACA30340540583A25
:102570001DE4340540592AC41835A005405A2A17CD
:102580001835B005405B3ABE48340640602ABF0C9F
:1025900035100640613A12D8340640623A38B434F5
:1025A0000640632A490C35400640643AE03C340753
:1025B00040703A2984340740713A3D3C34074072F8
:1025C0003A4E3C340740733A543C340740742A5A1C
:1025D0000C35500740753AA048340840803AF984D9
:1025E000340840813A2F48340840823AAA243409FA
:1025F00040903A036C340940913A342434094092B3
:102600003AD024340A40A03AB90C340B40B03A0D09
:1026100030340B40B12AD51835400B40B43A2384EE
:10262000340B40B52AAC0C35900B40B92A8C0C11F8
:10263000340C40C03AB348340D40D03A0748840DBA
:0826400040D184200D40000090
:04000005100401D909
:00000001FF
