:020000041004E6
:10000000B88B0030ED010410F5010410F701041065
:1000100000000000000000000000000000000000E0
:1000200000000000000000000000000007020410B3
:10003000000000000000000009020410810F0410FD
:100040000D0204100D0204100D0204100D02041024
:100050000D0204100D0204100D0204100D02041014
:100060000D0204100D0204100D0204100D02041004
:100070000D0204100D0204100D0204100D020410F4
:100080000D0204100D0204100D0204100D020410E4
:100090000D0204100D0204100D0204100D020410D4
:1000A0000D0204100D0204100D0204100D020410C4
:1000B0000D0204100D0204100D0204100D020410B4
:1000C0000D0204100D0204100D0204100D020410A4
:1000D0000D0204100D0204100D0204100D02041094
:1000E0000D0204100D0204100D0204100D02041084
:1000F0000D0204100D0204100D0204100D02041074
:100100000D0204100D0204100D0204100D02041063
:100110000D0204100D0204100D0204100D02041053
:100120000D0204100D0204100D0204100D02041043
:100130000D0204100D0204100D0204100D02041033
:100140000D0204100D0204100D0204100D02041023
:100150000D0204100D0204100D0204100D02041013
:100160000D0204100D0204100D0204100D02041003
:100170000D0204100D0204100D0204100D020410F3
:100180000D0204100D0204100D0204100D020410E3
:100190000D0204100D0204100D0204100D020410D3
:1001A0000D0204100D0204100D0204100D020410C3
:1001B0000D0204100D0204100D0204100D020410B3
:1001C0000D0204100D0204100D020410750E04102F
:1001D0000D0204100D0204100348854600F034FAA5
:1001E0000048004701160410B88B00300C488047C7
:1001F0000C480047FEE77046EFF30881EFF30982F1
:10020000094B98470047FEE7FEE7FEE7FEE70000E0
:10021000ABBE064B7446984720477046F047000037
:10022000850F0410D9010410A5080410790E0410DC
:10023000421C0178401C0029FBD1801A704710B580
:100240004843044601F0E8FE002805D00021002CB8
:1002500002D0641E0155FAE710BDF0B51FB4064682
:10026000002082B005464024019100901BE00199D6
:1002700022460F46304600F028FA049A059B801A61
:10028000994110D310461946224600F00EFA361A4C
:100290008F410197224601200021009F00F005FABE
:1002A00038184D4100902046641E0028DFDC019B79
:1002B00000982946324607B0F0BD0000F0B5074669
:1002C0000846584087B0C00F049048000E465900B9
:1002D00040084908BC1A884105D2384631461E46B6
:1002E00017460B4602465800400810434CD0300DCC
:1002F000039040055900400D490D0590401A0290A9
:10030000402872DA18030121000B09050843019007
:1003100004980092002805D001995242002088419B
:1003200000920190029840210A1A0199009800F069
:10033000BCF905460C466B4607CB00F0D7F9C0194F
:100340007141039A0E0D0023D71756401A467A4082
:10035000164344D0049A002A2DD0029A012A039A07
:1003600015DC1205C01A914101263605001C7141A9
:10037000D20F059ED2070093019202962A46234689
:1003800000F0D4F907B0F0BD38463146FAE716055B
:10039000224A0F46B218C01AB74101210905001CB4
:1003A0004F4100187F41114618187941E20F104360
:1003B0006D19644113E0E2076D0815436408C20734
:1003C0001443039A01261205C01A91413605001CF8
:1003D0007141CE07400830434908C01851412A46B0
:1003E000234600F096F9CDE7FFE70498012240008C
:1003F000C117121A00238B4104983146C417381ACA
:10040000A141EEE730B40124E407634030BC55E776
:1004100030B40124E407614030BC4FE70000E0FF46
:10042000F0B51FB488B00B99099800244840099989
:10043000C00F490049080991C0070B990090490075
:1004400049080B9109990898A64608431CD00B99B6
:100450000A98084318D0099801244000420D48002A
:10046000410D099824050003000B204309900B98C7
:100470000003000B20430B9050181C494018002229
:1004800001901446104605E0002001460DB0F0BD75
:10049000032801DA034600E003239C46C11A0AAE92
:1004A0000AE05F0008ADED5B4F00F75B7D4300277E
:1004B000AA187C41491C5B1E6145F2DD410004AB7A
:1004C0005A522104120C0A43240C401C0828DFDB7A
:1004D000019802900099704601910090059B049A42
:1004E0000799069800F022F9D0E700000DFCFFFF05
:1004F000F0B50C465C4085B0E40FE40703944C0073
:100500000026640859009446490802460296224390
:1005100021D062460A431ED06200570D4A000E03E6
:100520002303550D012402462C492405781B1B0B7F
:10053000360B401823432643614600901C46501A50
:10054000B44103D30098401C009002E09218009838
:100550005B41002803DA0020014605B0F0BD002011
:10056000012109050746864611E064461D46141B15
:10057000B54106D36546521BB341744607430C434D
:10058000A646CD0740084908284392185B41054616
:100590000D43EAD11046184313D060461946504027
:1005A0007140084306D06046101AB34106D20122BA
:1005B000002306E000220123DB0702E00122D243F0
:1005C0005310009874460105381C6141029C039D3C
:1005D0000019694100F09DF8BFE70000FD0300002D
:1005E0004A0009030123090B1B0519430A4B10B5E7
:1005F000520D9A4202DA0020014610BD064B3433F8
:100600009A4203DC9A1A00F060F810BD034BD2182E
:1006100000F04BF810BD0000FF030000CDFBFFFF12
:1006200010B5002904DB0124E40740428C41214637
:10063000002B04DB1C460123DB075242A3419942F5
:1006400000D1904210BD0000064C0125064E05E089
:10065000E36807CC2B430C3C98471034B442F7D3E3
:10066000FFF7BEFD042804102428041070B50446CA
:10067000002903D000202022012310E0002801D00F
:100680000020C043C046C0460DE02546D5408D42FF
:1006900005D30D469540641B1D46954040191546EF
:1006A000521E002DF1DC214670BD10B5202A04DB5E
:1006B0000146203A9140002010BD914020239C1A11
:1006C0000346E3401943904010BD10B5202A04DBD7
:1006D0000846203AD040002110BD0B46D340D04000
:1006E0002024A21A91400843194610BD10B5202AB3
:1006F00006DBCB170846203A1041C1170B4306E032
:100700000B461341D0402024A21A914008431946B9
:1007100010BD10B5002B08DA0024401C614192186E
:100720005B411A4301D14008400010BDF0B51FB431
:1007300082B005460C0003D0084600F0C7FF02E077
:1007400000F0C4FF20300246009021462846FFF703
:10075000ACFF049B059A04460F4618431143084317
:1007600014D0184610431BD0009840210A1A18468E
:100770000599FFF7AAFF05460E46009A05990498C9
:10078000FFF793FF084305D0012004E020463946D7
:1007900007B0F0BD0020C11705430E432C4337437B
:1007A00000990E986305401A7905E40A00220C436B
:1007B000FD0A0A3002D500200146E9E701051019BB
:1007C00069410C9C0D9D00196941FFF7A2FFDFE70D
:1007D00070B58C180578401C6B075B0F01D103784E
:1007E000401C2A1106D10278401C03E006780E70E6
:1007F000401C491C5B1EF9D12B0705D40023521E57
:100800000DD40B70491CFAE70378401CCB1A921CDC
:1008100003E01D780D70491C5B1C521EF9D5A142E6
:10082000D8D3002070BD000082B0019001200004E8
:100830000090FFE701980099884205D9FFE70098EA
:100840000199081A019004E001980090002001909D
:10085000FFE700980E49096841430E4801600E48C1
:10086000002101600D4805210160FFE70B48006889
:10087000C003002801D4FFE7F8E708480021016021
:10088000FFE701980028D5D1FFE702B07047C046C6
:100890000880003014E000E018E000E010E000E024
:1008A0007047000010B5CAB04990489147924998E6
:1008B0004021084080094090409800280DD0FFE773
:1008C00049A800784007002803D5FFE747984690DD
:1008D00002E048984690FFE7FFE7F94800F0E6FE9F
:1008E000F8493690084600F0E1FE4699896943913F
:1008F00043990988449100213A914099002912D1E5
:10090000FFE743A8C078C00600280CD4FFE743994E
:10091000ED4800F0CBFEED493590084600F0C6FEEC
:1009200001213A915CE14498E949884206D1FFE708
:10093000E84800F0BBFE02213A9150E14498000BD8
:10094000052858D1FFE703203A904498C005400F8E
:100950003F9044988006400F3E90449807210840FD
:100960003D9046983E99890041583F9A92008058A0
:100970000818429046983D998900405841903E9809
:100980003D9988421BD1FFE7439944980205D24B19
:10099000D24C002A349133903294319301D432985E
:1009A000319031983D99429A01920091CC49309012
:1009B00008463499339A309B00F078FE1AE0439948
:1009C00044980205C44BC54C002A2F912E902D94BB
:1009D0002C9301D42D982C902C984199429A0192F5
:1009E0000091C0492B9008462F992E9A2B9B00F01E
:1009F0005DFEFFE7F2E04498400B032856D1FFE785
:100A000003203A9044984005C00E3C9044988006DC
:100A1000400F3E904498072108403D9046983E99EB
:100A2000890040583C994018429046983D99890069
:100A3000405841903D983E9988421BD1FFE7439929
:100A400044980205A44BA54C002A2A912990289489
:100A5000279301D42898279027983D99429A01928C
:100A60000091FB49269008462A99299A269B00F076
:100A70001DFE1AE0439944980205F24BF24C002AFD
:100A8000259124902394229301D423982290229894
:100A90004199429A01920091EC492190084625998A
:100AA000249A219B00F002FEFFE796E04498000B99
:100AB000082856D1FFE703203A9044984005C00E1D
:100AC0003C9044988006400F3E904498072108408F
:100AD0003D9046983E99890040583C994018429074
:100AE00046983D998900405841903D983E998842EA
:100AF0001BD1FFE7439944980205D24BD24C002A00
:100B000020911F901E941D9301D41E981D901D9836
:100B10003D99429A01920091CD491C900846209936
:100B20001F9A1C9B00F0C2FD1AE0439944980205ED
:100B3000C44BC54C002A1B911A901994189301D4E8
:100B40001998189018984199429A01920091BF49BA
:100B5000179008461B991A9A179B00F0A7FDFFE70C
:100B60003AE04498000B09282ED1FFE703203A9081
:100B700044A800783B9044984005400F3D9046982B
:100B800080693B994018429046983D9989004058A9
:100B90004190439944980205AA4BAB4C002A169108
:100BA00015901494139301D41498139013984199A9
:100BB000429A01920091A549129008461699159AF9
:100BC000129B00F073FD06E004203A9044999C4883
:100BD00000F06CFDFFE7FFE7FFE7FFE7FFE7FFE758
:100BE0003A98032800D017E14098002800D0B3E0DD
:100BF00000204590FFE74598452800D9ABE0429892
:100C000045990C224A4393498918496888423CD344
:100C1000FFE7429845990C224A438E4951180969C9
:100C2000884232D2FFE745980C210A464243894860
:100C30008218127A39AB1A701A781F24224038AC05
:100C400022701A7852091A701A789200824BD25880
:100C50002378DA4001231A403792379A7F4B804C31
:100C6000002A119110900F940E9301D10F980E90BD
:100C70000E984599119A4A4310998A587A4B0D90CB
:100C800018460D9900F012FD65E0429845990C2236
:100C90004A43704989184968012212078918884215
:100CA00054D3FFE7429845990C224A4369495118A9
:100CB0000969012212078918884247D214E0C04608
:100CC000B2210410A0220410762304107422041010
:100CD000ABBE00000D230410EE240410F224041017
:100CE000CA220410EB22041045980C210A46424304
:100CF00058488218127A39AB1A701A781F24224089
:100D000038AC22701A7852091A701A789200524B35
:100D1000D2582378DA4001231A403792379A4F4B42
:100D20004F4C002A0C910B900A94099301D10A9818
:100D30000990099845990C9A4A430B998A58494B4E
:100D400008901846089900F0B1FC04E0FFE74598C8
:100D5000401C45904FE75EE042984449884259D391
:100D6000FFE700204590FFE74598452851D8FFE769
:100D7000429845990C224A4336498918496801220C
:100D80001207891888423FD3FFE7429845990C2201
:100D90004A433049511809690122120789188842CB
:100DA00032D2FFE745980C210A464243294882186F
:100DB000127A39AB1A701A781F24224038AC22708C
:100DC0001A7852091A701A789200234BD258237855
:100DD000DA4001231A403792379A204B204C002AE0
:100DE000079106900594049301D105980490049806
:100DF0004599079A4A4306998A581D4B039018460D
:100E0000039900F053FC04E0FFE74598401C45902F
:100E1000AAE7FFE7FFE7FFE700F02CF8074800F03C
:100E200045FCFFE74698006801210843002801D0EF
:100E3000FFE7F7E749984AB010BDC046B221041059
:100E40008F210410EE240410F2240410EB2204106D
:100E5000CA2204100C80003000F002401325041058
:100E60000C25041025220410F721041001000010A5
:100E700033230410FFE7FEE783B002900191009254
:100E8000002003B0704780B582B00190019800F057
:100E900003F802B080BD000081B00090FFE70E486B
:100EA00000680002002801D5FFE7F8E700980B4929
:100EB0000860684600780A280CD1FFE7FFE706487B
:100EC00000680002002801D5FFE7F8E703480D217C
:100ED0000160FFE701B0704718000750000007509D
:100EE00080B58CB0002007900121082205900846AB
:100EF00004911146FFF7A3F90B906E200499FFF7B8
:100F00009EF90B9908601B48FFF792F90B9948600E
:100F100005980690FFE706980B99496888420BDA16
:100F2000FFE706981349095C0B9A12681154FFE712
:100F30000698401C0690EEE70B9801680E4800F0FA
:100F4000B5FB0B9949680D4A0390104600F0AEFBC3
:100F50000B9901220290104600F066F80B9909687F
:100F60000190084601F02EF80B9801F02BF80CB018
:100F700080BDC04630210410612504104E250410A8
:100F800070470000014802490860704700000410E3
:100F900008ED00E080B584B0039002A80021017044
:100FA00001A8017000911B480160FFE7009800282C
:100FB0002BD1FFE7FFE7184800684004002823D43E
:100FC000FFE71648006802A908700398002806D0B9
:100FD000FFE702A80178124800F068FBFFE701A8CC
:100FE00000784F280BD1FFE702A800784B2806D1E4
:100FF000FFE70C4800F05AFB0121009103E0029842
:1010000001A90870FFE7D6E7D0E702480121016097
:1010100004B080BDB0480050183007500030075071
:10102000FF270410FD27041080B598B01790169183
:10103000002015901699496813914B491290084663
:1010400000F034FB49491190084600F02FFB169937
:101050000968474A1090104600F028FB1699496825
:10106000444A0F90104600F021FB4349129A0A604F
:10107000FFE71398002809D0FFE71598401C15904A
:1010800013980A2190FBF1F01390F2E7169840684C
:1010900000F06BFA1490394800F008FB16990968C3
:1010A000334A0E90104600F001FB16994968314A08
:1010B0000D90104600F0FAFA1499314A0C9010463F
:1010C00000F0F4FA15992F4A0B90104600F0EEFA52
:1010D00017992D4A0A90104609910892FFF7A8F82F
:1010E0000999079008460899079A00F0E5F91798BA
:1010F0001499159A00F0E0F91798244906900846CB
:101100000591FFF795F80699049008460599049A09
:1011100000F0D2F91798FFF73DFF179816990A6863
:10112000496803911146039A00F0C6F9179805998A
:1011300002900846FFF77CF802990190084605994D
:10114000019A00F0B9F91798FFF724FF17980028C3
:1011500004D0FFE70E4800F0A9FAFFE7C4480121D8
:101160000160084618B080BD9D270410E4250410D6
:101170001926041003260410AC480050E925041079
:1011800030260410ED250410A42004102D21041095
:10119000D725041070B5A2B0B14800F087FAB14964
:1011A0001C90084600F082FAAF4945F200020A603E
:1011B00005218905AD4A1160AD4900220A60AD4B99
:1011C0001A60AD4C01252560AC4E3560AC4E1B90CD
:1011D00030461A911992189317941695FFF724FB2D
:1011E00016981A990860189A1060199B179C23602A
:1011F00020931F931E931D93FFE71D98002800D096
:101200002CE19C4800210160FFE7C14800684004D0
:10121000002800D58EE000201E90BE48006821A95D
:1012200008701F9800280DD1FFE721A800787228C8
:1012300008D1FFE71E98002804D1FFE701201F9086
:101240001E90FFE71F9801280ED1FFE721A8007824
:10125000652809D1FFE71E98002805D1FFE7022085
:101260001F9001201E900BE01F98012807D1FFE777
:101270001E98002803D1FFE700201F90FFE7FFE73B
:101280001F9802280ED1FFE721A80078612809D114
:10129000FFE71E98002805D1FFE703201F900120DB
:1012A0001E900BE01F98022807D1FFE71E98002828
:1012B00003D1FFE700201F90FFE7FFE71F980328F7
:1012C0000ED1FFE721A80078642809D1FFE71E9816
:1012D000002805D1FFE704201F9001201E900BE09D
:1012E0001F98032807D1FFE71E98002803D1FFE7C6
:1012F00000201F90FFE7FFE71F9804280DD1FFE7AC
:1013000021A80078792808D1FFE71E98002804D189
:10131000FFE7012020901E900BE01F98042807D1C2
:10132000FFE71E98002803D1FFE700201F90FFE78A
:10133000FFE76AE72098002800D18BE0514815901C
:10134000FEF776FF002114900846159A1391114676
:10135000149A00F0B1F81398FFF71CFE4A48129057
:10136000FEF766FF1399119008461299119A00F042
:10137000A3F81398FFF70EFE444800F097F944498C
:10138000109008460F91FEF753FF13990E900846F0
:101390000F990E9A00F090F81398FFF7FBFD3D4867
:1013A00000F084F93C490D9008460C91FEF740FF8F
:1013B00013990B9008460C990B9A00F07DF813983E
:1013C000FFF7E8FD354800F071F935490A90084605
:1013D0000991FEF72DFF1399089008460999089A7C
:1013E00000F06AF81398FFF7D5FD2E4800F05EF97B
:1013F000099907900846FEF71BFF2B49139A0690A0
:101400001046069A00F058F81398FFF7C3FD2748D6
:101410000590FEF70DFF1399049008460599049A6C
:1014200000F04AF81398FFF7B5FD214800F03EF9A7
:101430000C490390084600F039F91E49029008460D
:1014400000F034F993490190084600F02FF901218A
:101450001D91FFE7074801210160CEE622B070BD73
:10146000A826041046260410C040005080400050BA
:10147000AC480050B0480050DC480050D8480050FC
:1014800040420F00842004101F210410772604100E
:10149000F52004103B270410D82004106C270410FA
:1014A00096200410CE27041089200410B0200410C8
:1014B000D92604100A27041080B584B00390029145
:1014C000019200200090FFE70098019988421DDA00
:1014D000FFE7FFE70E4800680002002801D5FFE79C
:1014E000F8E702980099405C0A49086003980028D0
:1014F00007D0FFE702980099415C074800F0D6F852
:10150000FFE7FFE70098401C0090DDE704B080BDD6
:101510001830075000300750FF27041080B582B004
:10152000019000910198FFF7AEFC019802B080BDD8
:1015300082B00190002000900198002804DCFFE7B1
:101540000098401C0090FFE7FFE70198002809D0B1
:10155000FFE701980A2190FBF1F001900098401CF0
:101560000090F2E7009802B0704780B588B006900E
:101570000698029001200390029901900846FFF717
:10158000D7FF04900498401C0199FEF758FE05907F
:10159000002803D1FFE7002007902DE002980028E3
:1015A00007D5FFE70020C043039002984042029015
:1015B000FFE7FFE70498002812D0FFE702980A210E
:1015C00090FBF1F20B465343C01A3030059A049B4E
:1015D0005B1E0493D054029890FBF1F00290E9E76F
:1015E0000398401C002804D1FFE705982D210170C5
:1015F000FFE705980790FFE7079808B080BD000057
:1016000080B58AB0002009902248089000F04EF87A
:1016100021490790084600F049F8089906900846C5
:1016200000F044F81D490590084600F03FF808997D
:101630000490084600F03AF819490390084600F073
:1016400035F808990290084600F030F80190FFF74D
:10165000A1FDFFE71348006800280AD1FFE7FFE774
:1016600010480068002801D1FFE7F9E7FFF718F9F3
:10167000FFE70D48006800280AD1FFE7FFE70A48A6
:101680000068002801D1FFE7F9E7FFF729FCFFE731
:10169000E0E7C0461D250410A6250410FD27041010
:1016A0007525041040480050444800500FB410B550
:1016B00003A9044B044A029800F0E8F810BC08BCE7
:1016C00004B018471D150410608300302021020C5F
:1016D00001D010211046020A01D010460839020933
:1016E00001D01046091F820801D01046891E420809
:1016F00001D0881E7047081A704702E008C8121F00
:1017000008C1002AFAD170477047002001E001C1EA
:10171000121F002AFBD17047F0B51FB486B009989C
:10172000089A030D0021024314D05148514A181859
:10173000504305141198012810981AD0281A401CFB
:1017400000264D4F4D49009601910490002812DA71
:10175000444211E01198012449A3012801D11098B5
:10176000C1430698119A84600360C26041600BB067
:10177000F0BD4042E4E70446210500203F4A001C3A
:1017800051410391029012E0E00707D032463B46F8
:1017900001990098FEF744FE0191009032463B46C5
:1017A00010461946FEF73CFE06460F466410002C14
:1017B000EAD10498039B0028029A0999089806DA4E
:1017C000FEF72EFE019B009AFEF72AFE05E0FEF7CB
:1017D0008FFE019B009AFEF78BFE04460E46002208
:1017E000284BFEF71DFF03D80020C043014607E049
:1017F0000022254B20463146FEF760FDFEF7F0FE45
:10180000102409E0002C0ADB0A220023FEF725FD44
:10181000079B30321A55641E02460A43F2D1112248
:10182000641C079B121B1C19119B012B03D0012365
:1018300008430ED10AE0084304D011201090002084
:10184000119077E71098151A6D1E0BE010988242E0
:1018500002DD00236D1C03E0824201DA00236D1ECD
:10186000002BEED0069811998260C16030C07EE7EF
:1018700001FCFFFF104D0000000014400000F03F8D
:10188000300000000000F0430000E03FFFB597B0DB
:101890000646002518E2252877D100242746FD4971
:1018A000049400E00443761C32780120203A9040F2
:1018B0000842F7D130782A280ED00222307801462B
:1018C0003039092916D804990A2359433039401868
:1018D0001443761C0490F1E7189802C804911890FC
:1018E000002904DA01204003044348420490022006
:1018F0000443761C30782E2814D1042004437078D9
:10190000761C2A2809D11898761C80C8189009E0FE
:101910000A214F43303FC719761C307801463039D1
:101920000929F5D930786C2810D006DC4C281AD05B
:1019300068280ED06A2817D104E0742813D07A28BA
:1019400012D110E00120400504430CE001210905FB
:1019500001E0032109050C437178814203D1012084
:1019600000052418761C761C3078119066280BD060
:1019700013DC58287DD009DC00287BD04528F6D020
:101980004628F4D047281AD1A5E118E0632835D0BD
:10199000642870D0652812D19DE170286CD008DCD5
:1019A0006728F1D069287BD06E280DD06F2806D12A
:1019B000BAE073282ED0752871D0782859D01A9A99
:1019C000199990476D1C7EE16002400F022809D0F2
:1019D00003280DD00428189801680DD00D60001D53
:1019E000189070E11898EA1701680D604A60F6E7F0
:1019F000189801680D80F2E70D70F0E718986A46B4
:101A000001781172001D18900020507202A80090F9
:101A1000012005E0189802C8189000200091C043EA
:101A200061070DD5002101E00199491C0191B942DE
:101A300012DA8142F8DB009A515C0029F4D10BE004
:101A4000002101E00199491C01918142FADB019AD0
:101A50000099895C0029F5D1019904981A9B471ACD
:101A600021463846199A00F097FA0199401945180D
:101A70000BE04FE02CE113E04EE000980099007875
:101A8000491C00911A9A199990470198401E01909B
:101A9000401CF2D1214638461A9B199A10E137E0D2
:101AA0000A200021009001916002410F022907D015
:101AB000189A01CA1892C2179446032908D00AE05E
:101AC0001898C01DC108C90005C91891944607E0BF
:101AD00000B2C2179446042902D140B2C1178C4605
:101AE00000226146944506DA0A46002140429141AF
:101AF0008C462D2102E0210504D52B216A46117365
:101B0000012103E0E10701D02021F7E7029155E030
:101B10000A200AE0102008E0102000900021042094
:101B200004430191082703E008200021019100905F
:101B30006002410F022907D0189A01CA18920022A8
:101B40009446032908D008E01898C01DC108C900B0
:101B500005C91891944603E080B2042900D1C0B2AF
:101B600000210291210729D51199702906D0009AE8
:101B70001021019B4A401A4305D00EE040216A46DD
:101B80001173012108E06146014306D030216A4605
:101B900011731199517302210291009A0821019B3E
:101BA0004A401A430AD16146014301D1610705D574
:101BB00030216A46117301217F1E02911199582923
:101BC00004D035A10E910DA90D910DE037A1F9E7D3
:101BD0006146019B009AFEF740FB0E9B8C469B5C86
:101BE0000D9A521E0D92137061460143F0D10D986B
:101BF00005A9081A20300190600703D501200004D0
:101C0000844300E001270198874201DD381A00E093
:101C10000020019900904118029809180498401A70
:101C20000490E00306D421461A9B199A049800F008
:101C3000B3F94519002706E003A81A9AC05D19995F
:101C400090476D1C7F1C02988742F5DBE0030CD5A2
:101C500021461A9B199A049800F09EF9451904E050
:101C60001A9A3020199990476D1C0099481E0090CF
:101C70000029F5DC08E00D980D990078491C0D91BC
:101C80001A9A199990476D1C0199481E01900029D4
:101C9000F1DC63E109280100303132333435363765
:101CA00038396162636465660000000030313233A8
:101CB0003435363738394142434445460000000048
:101CC00000F05AF94519761C3078002800D0E2E57A
:101CD00028461BB0F0BD600700D406271898C01D29
:101CE000C108C90048680A680831C30FDB071891AA
:101CF000190001D09CA108E0210501D59BA104E0B9
:101D0000E10701D09AA100E09AA1430011985B0875
:101D1000109165280CD006DC452809D046281DD036
:101D2000472841D141E0662818D067283CD13CE0E3
:101D30000021112F01DB112000E0781C019100909F
:101D400008A911A8FFF7E8FC139905910021119A41
:101D500015927F1C12980197009150E00120C00756
:101D600003900120019008A9009711A8FFF7D4FC67
:101D7000139A149905920022119B009212981593C0
:101D8000059A0192002901D0104602E0791C401802
:101D90000190381A01D5019804E04042401E00909D
:101DA000781C0190C01B029043E0012F00DA01274C
:101DB0000021112F01DD112000E038460191009033
:101DC00008A911A8FFF7A8FC13990591119A002101
:101DD000129815920091019721070CD40599B942E8
:101DE00001DB019900E00191012904DD159A491EEA
:101DF000515C302906D0B84201DA011D05DA012113
:101E0000029115E00199491EEDE7002805DC0099D3
:101E1000411800910199091A03E0019A411C91426D
:101E200000DD01910099401A401C02900120C0077A
:101E30000390200706D402990198814202DB00201A
:101E4000C043029000206946C87707AF012103987C
:101E50000337C907884224D0022011902B2012900A
:101E6000039800280CDA404203902D20129007E0DE
:101E70000A210398FEF7FAFB30317F1E0390397078
:101E80001199481E11900029F2DC03980028EFD127
:101E9000791E129808703078202108404530BF1E06
:101EA000387006A8C01BC01D039010980078002849
:101EB00000D00120019941180298C0170918039811
:101EC00009180498401A401E0490E00306D42146E5
:101ED0001A9B199A049800F05FF845191098007839
:101EE000002803D01A9A199990476D1CE00324D555
:101EF00021461A9B199A049800F04EF845191CE0E7
:101F00000098002807DB00990598884203DD1598A2
:101F1000405C199901E0199930201A9A904700986D
:101F20006D1C401C00900298401E0290002804D1B5
:101F30001A9A2E20199990476D1C0199481E0190FC
:101F40000029DDDC05E038781A9A7F1C1999904742
:101F50006D1C0399481E03900029F4DC21461A9B4E
:101F6000199A0498ACE600002D0000002B00000038
:101F70002000000000000000F8B5044600251E46C1
:101F80001746880404D405E039462020B0476D1C6C
:101F9000641EF9D52846F8BDFFB50446002581B07A
:101FA0001E46C80301D5302700E02027880404D549
:101FB00005E038460399B0476D1C641EF9D52846E4
:101FC00005B0F0BD10B5002823D0124B0022001F31
:101FD000196803E0814203D80A4649680029F9D10B
:101FE000002A0AD01368841A9C4204D10068181889
:101FF0001060104602E0506000E01860002907D031
:1020000002680B1A934203D10B68D2180260496828
:10201000416010BD00800030F0B50B30C108C90030
:10202000144F0026144A0FE003688B420BD38B42F7
:1020300005D95C1A4318456830C3083B00E0436883
:10204000136002C004E0021D10680028ECD1304685
:10205000002803D13868002801D00020F0BD064ACE
:1020600006481060064A121AD208D20044C0012065
:102070003860D7E70480003000800030BC83003037
:10208000B883003041540D0A0041542B4349504D50
:1020900055583F0D0A0041542B4349504D55583D6A
:1020A000300D0A0041542B43495053454E443D00E6
:1020B00041542B43495053544152543D22544350B0
:1020C000222C223139322E3136382E33352E313210
:1020D00038222C38300D0A0041542B4349505354B8
:1020E000413D223139322E3136382E33352E3132C0
:1020F00037220D0A0041542B43574A41503D225389
:102100004B5F576946694749474137454231222C61
:102110002231363033303034353030220D0A004130
:10212000542B43574D4F44453D310D0A000D0A00D5
:10213000474554202F70726F636573732E706870FB
:102140003F70756C73653D313233342048545450C0
:102150002F312E310A486F73743A203139322E31C3
:1021600036382E33352E3132380A436F6E6E656342
:1021700074696F6E3A206B6565702D616C69766568
:102180000A4163636570743A202A2F2A0A0A0020E4
:1021900020556E657870656374656420696E73742C
:1021A00072756374696F6E3A203078253034782008
:1021B0000A0021212D2D2D2D2D2D2D2D2D2D2D2DB7
:1021C0002D2D2D2D2D2D2D2D2D2D2D2D2D2D2D2D3F
:1021D0002D2D2D2D2D2D2D2D2D2D2D2D2D2D2D2D2F
:1021E0002D2D2D2D2D2D2D2D2D2D2D2D2D2D2D2D1F
:1021F0002D2D2D21210A002020496C6C6567616C12
:102200002061636365737320746F202573202573C9
:1022100020696E204E6F6E73656375726520636F03
:1022200064652E0A002020496C6C6567616C206132
:10223000636365737320746F202573202573206991
:102240006E204E6F6E73656375726520636F646593
:102250002E0A4974206D61792062652073657420AF
:1022600061732073656375726520495020686572DB
:10227000652E0A00202054727920746F20636865EF
:10228000636B204E534320726567696F6E206F72D7
:10229000205341552073657474696E67732E0A006C
:1022A000202020202020202020202020202020202E
:1022B000202020202020203C3C3C204861726446A5
:1022C00061756C74203E3E3E0A0020205B3078250C
:1022D0003038785D203078253034782025732052CE
:1022E0002564205B307825785D0A0020205B3078FB
:1022F000253038785D2030782530347820257320DB
:1023000030782578205B307825785D0A00202045DC
:1023100078656375746520424B5054207769746802
:102320006F75742049434520636F6E6E65637465F5
:10233000640A002020496C6C6567616C20746F2012
:10234000757365204E6F6E73656375726520616489
:10235000647265737320746F2061636365737320A7
:10236000257320257320696E20536563757265207F
:10237000636F64650A0020204E6F6E2D7365637570
:102380007265204350552074727920746F20666501
:102390007463682073656375726520636F6465207C
:1023A000696E20307825780A0050444D413000494C
:1023B00032433000444143300053433000534448DB
:1023C0003000555343493000514549300051535076
:1023D0004930004250574D30004550574D30004372
:1023E000414E300045434150300049325330005592
:1023F000415254300041434D50303100544D523021
:10240000310050444D413100493243310044414391
:10241000310053433100555343493100514549314F
:102420000053504931004250574D31004550574DEF
:102430003100454341503100554152543100493239
:1024400043320053433200535049320055415254F5
:102450003200544D523233005350493300554152EB
:1024600054330055415254340055415254350047BD
:1024700050494F41005041004750494F420050429F
:10248000004541444300464D43004750494F4300F7
:1024900050430043524300525443005553424400BA
:1024A0004750494F44005044004750494F45005061
:1024B00045004750494F460050460054524E470091
:1024C0004750494F47005047004F5447005553422B
:1024D00048004750494F4800504800454249004392
:1024E0004C4B004750494F5F444243544C004C44CE
:1024F0005200535452005359530057574454004903
:102500004E54004352505400534355005365637575
:102510007265004E6F6E736563757265002B2D2DAD
:102520002D2D2D2D2D2D2D2D2D2D2D2D2D2D2D2DDB
:102530002D2D2D2D2D2D2D2D2D2D2D2D2D2D2D2DCB
:102540002D2D2D2D2D2D2D2D2D2D2D2B0A0067659B
:10255000742D3E6C656E20090909203A2025640A15
:10256000006765742D3E64617461090909203A2091
:102570000A25730A007C20202020202020202020F3
:102580002020455350383236362057694669204D51
:102590006F64756C65205374617274202020202054
:1025A0002020207C0A007C202020202020202020A9
:1025B000202020204E6F6E2D536563757265206953
:1025C000732072756E6E696E67202E2E2E2020206D
:1025D000202020207C0A00446174612053656E74C1
:1025E00020210A002A26260A002A2A0A006C656E83
:1025F0006774685374724C656E202020203A202541
:10260000640A006E6574446174612D3E6C656E678A
:102610007468203A2025640A006E65744461746110
:102620002D3E646174612020203A200A25730A003F
:102630006C656E67746853747220202020202020FF
:102640003A2025730A007C202020202020202020F2
:10265000202020202020202020202020202020207A
:10266000202020202020202020202020202020206A
:10267000202020207C0A007C2020202020202020D8
:1026800043757272656E74206D6F6465203A205BCD
:10269000315D2053746174696F6E202020202020EA
:1026A00020202020207C0A007C20202020202020A8
:1026B000202020202057694669204D6F64756C6585
:1026C000204C6F6164696E6720202E2E2E20202002
:1026D0002020202020207C0A007C20202020202078
:1026E000205365727665722054435020656E616296
:1026F0006C6564206F6E20383020706F72742020FB
:10270000202020202020207C0A007C202020202047
:1027100020202057694669204D6F64756C652045FF
:1027200053503832363620697320526561647920FF
:1027300020202020202020207C0A007C2020202017
:1027400020202020576946692053534944203A20CD
:102750002022534B5F5769466947494741374542F5
:102760003122202020202020207C0A007C202020D4
:1027700020202020205365742053746174696F6E8B
:10278000204950203A203139322E3136382E333517
:102790002E3132372020202020207C0A007C20206F
:1027A000202020204E6F6E5365637572652069731B
:1027B0002072756E6E696E67202E2E2E2053656E08
:1027C00064204461746120202020207C0A007C2049
:1027D000202020576946692053696E676C65205335
:1027E000657276657220436F6E6E656374696F6E95
:1027F0007320456E61626C65642020207C0A002590
:1028000063000000282804100080003060030000EE
:10281000D0070410202A04106083003058080000FC
:102820000A1704100000000081323035F62404102D
:1028300042402ADF0C4A020C2AFF0C4A030C2A6F82
:102840000C12403340E01A780C1A400C32E11A8A1C
:102850000C1A800C32E21AA00C1AC00C32E32AA91E
:102860003012413340E42AB230190C32E52AC0302C
:10287000190C32E62AD230190C32E72AE3244A44F2
:102880006C2A753C4A486C2A7E18590C2A903C598F
:102890000C2AA63C590C2AAF304A490C2AB83059A8
:1028A0000C2AC630590C2AD830590C1BA923304A9F
:1028B000806C2A023C35800140182ACD0C129033DE
:1028C00040092A860C4AC0242ABD3012D033400D5C
:1028D0002ADB18111B014005111B08250C3BF002D7
:1028E000242A931835100340312A03183520034059
:1028F000323AFB303A04242AFA0C4A010C3A973057
:10290000340440412A810C35300440432AF56C35AB
:10291000500440452AB40C35700440472A0DD8595C
:102920000C3AEAC0340440482AC93C35D004404D32
:102930002AFC18113A05603A5260340540513AD9E0
:1029400030340540583A2CE4340540592AD3183520
:10295000A005405A2A261835B005405B3ACD4834C8
:102960000640602ACE0C35100640612A212435200D
:102970000640623A47B4340640632A580C35400694
:1029800040643AEF3C340740703A38843407407171
:102990003A4C3C340740723A5D3C340740733A632A
:1029A0003C340740742A690C35500740753AAF48EB
:1029B000340840803A0848340840813A3E48340898
:1029C00040823AB924340940903A122434094091A3
:1029D0003A4324340940923ADF24340A40A03AC8EA
:1029E0000C340B40B03A1C30340B40B12AE418359B
:1029F000400B40B43A3284340B40B52ABB0C3590BE
:102A00000B40B92A9B0C11340C40C03AC248340D1B
:102A100040D03A1648840D40D144200D40000000BB
:04000005100401D909
:00000001FF
